{
    "contractName": "Voter",
    "abi": [
        {
            "inputs": [],
            "stateMutability": "nonpayable",
            "type": "constructor"
        },
        {
            "anonymous": false,
            "inputs": [
                {
                    "indexed": true,
                    "internalType": "address",
                    "name": "admin",
                    "type": "address"
                }
            ],
            "name": "AdminRemoved",
            "type": "event"
        },
        {
            "anonymous": false,
            "inputs": [
                {
                    "indexed": true,
                    "internalType": "address",
                    "name": "admin",
                    "type": "address"
                }
            ],
            "name": "NewAdmin",
            "type": "event"
        },
        {
            "anonymous": false,
            "inputs": [
                {
                    "indexed": true,
                    "internalType": "address",
                    "name": "previousOwner",
                    "type": "address"
                },
                {
                    "indexed": true,
                    "internalType": "address",
                    "name": "newOwner",
                    "type": "address"
                }
            ],
            "name": "OwnershipTransferred",
            "type": "event"
        },
        {
            "stateMutability": "payable",
            "type": "fallback"
        },
        {
            "inputs": [],
            "name": "ReIniciar",
            "outputs": [
                {
                    "internalType": "bool",
                    "name": "",
                    "type": "bool"
                }
            ],
            "stateMutability": "nonpayable",
            "type": "function"
        },
        {
            "inputs": [
                {
                    "internalType": "address",
                    "name": "",
                    "type": "address"
                }
            ],
            "name": "admin",
            "outputs": [
                {
                    "internalType": "bool",
                    "name": "",
                    "type": "bool"
                }
            ],
            "stateMutability": "view",
            "type": "function"
        },
        {
            "inputs": [
                {
                    "internalType": "address",
                    "name": "",
                    "type": "address"
                }
            ],
            "name": "fans",
            "outputs": [
                {
                    "internalType": "bool",
                    "name": "registrado",
                    "type": "bool"
                }
            ],
            "stateMutability": "view",
            "type": "function"
        },
        {
            "inputs": [],
            "name": "fin",
            "outputs": [
                {
                    "internalType": "uint256",
                    "name": "",
                    "type": "uint256"
                }
            ],
            "stateMutability": "view",
            "type": "function"
        },
        {
            "inputs": [],
            "name": "ganador",
            "outputs": [
                {
                    "internalType": "uint256",
                    "name": "",
                    "type": "uint256"
                }
            ],
            "stateMutability": "view",
            "type": "function"
        },
        {
            "inputs": [],
            "name": "inicio",
            "outputs": [
                {
                    "internalType": "uint256",
                    "name": "",
                    "type": "uint256"
                }
            ],
            "stateMutability": "view",
            "type": "function"
        },
        {
            "inputs": [
                {
                    "internalType": "uint256",
                    "name": "",
                    "type": "uint256"
                }
            ],
            "name": "items",
            "outputs": [
                {
                    "internalType": "bool",
                    "name": "",
                    "type": "bool"
                }
            ],
            "stateMutability": "view",
            "type": "function"
        },
        {
            "inputs": [
                {
                    "internalType": "address",
                    "name": "_fan",
                    "type": "address"
                }
            ],
            "name": "largoFanItems",
            "outputs": [
                {
                    "internalType": "uint256",
                    "name": "",
                    "type": "uint256"
                }
            ],
            "stateMutability": "view",
            "type": "function"
        },
        {
            "inputs": [],
            "name": "largoItems",
            "outputs": [
                {
                    "internalType": "uint256",
                    "name": "",
                    "type": "uint256"
                }
            ],
            "stateMutability": "view",
            "type": "function"
        },
        {
            "inputs": [
                {
                    "internalType": "address payable",
                    "name": "_newadmin",
                    "type": "address"
                }
            ],
            "name": "makeNewAdmin",
            "outputs": [],
            "stateMutability": "nonpayable",
            "type": "function"
        },
        {
            "inputs": [
                {
                    "internalType": "address payable",
                    "name": "_oldadmin",
                    "type": "address"
                }
            ],
            "name": "makeRemoveAdmin",
            "outputs": [],
            "stateMutability": "nonpayable",
            "type": "function"
        },
        {
            "inputs": [],
            "name": "owner",
            "outputs": [
                {
                    "internalType": "address payable",
                    "name": "",
                    "type": "address"
                }
            ],
            "stateMutability": "view",
            "type": "function"
        },
        {
            "inputs": [],
            "name": "pool",
            "outputs": [
                {
                    "internalType": "uint256",
                    "name": "",
                    "type": "uint256"
                }
            ],
            "stateMutability": "view",
            "type": "function"
        },
        {
            "inputs": [],
            "name": "reclamar",
            "outputs": [
                {
                    "internalType": "uint256",
                    "name": "",
                    "type": "uint256"
                }
            ],
            "stateMutability": "nonpayable",
            "type": "function"
        },
        {
            "inputs": [],
            "name": "redimBNB",
            "outputs": [
                {
                    "internalType": "uint256",
                    "name": "",
                    "type": "uint256"
                }
            ],
            "stateMutability": "nonpayable",
            "type": "function"
        },
        {
            "inputs": [
                {
                    "internalType": "uint256",
                    "name": "_value",
                    "type": "uint256"
                }
            ],
            "name": "redimToken",
            "outputs": [
                {
                    "internalType": "uint256",
                    "name": "",
                    "type": "uint256"
                }
            ],
            "stateMutability": "nonpayable",
            "type": "function"
        },
        {
            "inputs": [
                {
                    "internalType": "uint256",
                    "name": "_item",
                    "type": "uint256"
                }
            ],
            "name": "setGanador",
            "outputs": [
                {
                    "internalType": "uint256",
                    "name": "",
                    "type": "uint256"
                }
            ],
            "stateMutability": "nonpayable",
            "type": "function"
        },
        {
            "inputs": [
                {
                    "internalType": "address",
                    "name": "_tokebp20",
                    "type": "address"
                }
            ],
            "name": "setToken",
            "outputs": [
                {
                    "internalType": "address",
                    "name": "",
                    "type": "address"
                }
            ],
            "stateMutability": "nonpayable",
            "type": "function"
        },
        {
            "inputs": [],
            "name": "tiempo",
            "outputs": [
                {
                    "internalType": "uint256",
                    "name": "",
                    "type": "uint256"
                }
            ],
            "stateMutability": "view",
            "type": "function"
        },
        {
            "inputs": [
                {
                    "internalType": "address payable",
                    "name": "newOwner",
                    "type": "address"
                }
            ],
            "name": "transferOwnership",
            "outputs": [],
            "stateMutability": "nonpayable",
            "type": "function"
        },
        {
            "inputs": [
                {
                    "internalType": "bool[]",
                    "name": "_base",
                    "type": "bool[]"
                }
            ],
            "name": "updateBase",
            "outputs": [
                {
                    "internalType": "bool",
                    "name": "",
                    "type": "bool"
                }
            ],
            "stateMutability": "nonpayable",
            "type": "function"
        },
        {
            "inputs": [
                {
                    "internalType": "uint256[]",
                    "name": "_fases",
                    "type": "uint256[]"
                }
            ],
            "name": "updateFases",
            "outputs": [
                {
                    "internalType": "bool",
                    "name": "",
                    "type": "bool"
                }
            ],
            "stateMutability": "nonpayable",
            "type": "function"
        },
        {
            "inputs": [
                {
                    "internalType": "uint256[]",
                    "name": "_precios",
                    "type": "uint256[]"
                }
            ],
            "name": "updatePrecios",
            "outputs": [
                {
                    "internalType": "bool",
                    "name": "",
                    "type": "bool"
                }
            ],
            "stateMutability": "nonpayable",
            "type": "function"
        },
        {
            "inputs": [],
            "name": "valor",
            "outputs": [
                {
                    "internalType": "uint256",
                    "name": "",
                    "type": "uint256"
                }
            ],
            "stateMutability": "view",
            "type": "function"
        },
        {
            "inputs": [
                {
                    "internalType": "address",
                    "name": "_fan",
                    "type": "address"
                },
                {
                    "internalType": "uint256",
                    "name": "_i",
                    "type": "uint256"
                }
            ],
            "name": "verFanItems",
            "outputs": [
                {
                    "internalType": "bool",
                    "name": "",
                    "type": "bool"
                }
            ],
            "stateMutability": "view",
            "type": "function"
        },
        {
            "inputs": [],
            "name": "verGanador",
            "outputs": [
                {
                    "internalType": "bool",
                    "name": "",
                    "type": "bool"
                },
                {
                    "internalType": "uint256",
                    "name": "",
                    "type": "uint256"
                }
            ],
            "stateMutability": "view",
            "type": "function"
        },
        {
            "inputs": [
                {
                    "internalType": "uint256",
                    "name": "_item",
                    "type": "uint256"
                }
            ],
            "name": "votar",
            "outputs": [
                {
                    "internalType": "bool",
                    "name": "",
                    "type": "bool"
                }
            ],
            "stateMutability": "nonpayable",
            "type": "function"
        },
        {
            "inputs": [
                {
                    "internalType": "uint256",
                    "name": "",
                    "type": "uint256"
                }
            ],
            "name": "votos",
            "outputs": [
                {
                    "internalType": "uint256",
                    "name": "",
                    "type": "uint256"
                }
            ],
            "stateMutability": "view",
            "type": "function"
        },
        {
            "stateMutability": "payable",
            "type": "receive"
        }
    ],
    "bytecode": "600280546001600160a01b03191673f0fb4a5acf1b1126a991ee189408b112028d7a6317905560e060405263618eb9b060809081526361900b3060a0526361915cb060c05262000053906003908162000265565b50604080518082019091526802b5e3af16b1880000815268056bc75e2d63100000602082015262000089906004906002620002bd565b506040805160a081018252600080825260208201819052918101829052606081018290526080810191909152620000c590600690600562000306565b506040805160a08101825260008082526020820181905291810182905260608101829052608081019190915262000101906007906005620003ad565b50600680546200011491600891620003f0565b50600254600a80546001600160a01b0319166001600160a01b039092169190911790553480156200014457600080fd5b50600080546001600160a01b0319163390811782558152600160208181526040808420805460ff19168417905580518082018252938452606084830152805180820182529283526008805482518185028101850190935280835284840193830182828015620001f357602002820191906000526020600020906000905b825461010083900a900460ff161515815260206001928301818104948501949093039092029101808411620001c15790505b505050505081525090508060056000620002126200026160201b60201c565b6001600160a01b031681526020808201929092526040016000208251815460ff19169015151781558282015180519192620002569260018501929091019062000306565b509050505062000458565b3390565b828054828255906000526020600020908101928215620002ab579160200282015b82811115620002ab578251829063ffffffff1690559160200191906001019062000286565b50620002b992915062000441565b5090565b828054828255906000526020600020908101928215620002ab579160200282015b82811115620002ab57825182906001600160481b0316905591602001919060010190620002de565b82805482825590600052602060002090601f01602090048101928215620002ab5791602002820160005b838211156200036f57835183826101000a81548160ff021916908315150217905550926020019260010160208160000104928301926001030262000330565b80156200039e5782816101000a81549060ff02191690556001016020816000010492830192600103026200036f565b5050620002b992915062000441565b828054828255906000526020600020908101928215620002ab579160200282015b82811115620002ab578251829060ff16905591602001919060010190620003ce565b82805482825590600052602060002090601f01602090048101928215620002ab57600052602060002091601f016020900482015b82811115620002ab57825482559160010191906001019062000424565b5b80821115620002b9576000815560010162000442565b611a6680620004686000396000f3fe6080604052600436106101a25760003560e01c806370a0966b116100e0578063cff6f53e11610084578063eecd9c8511610061578063eecd9c85146104b9578063f2fde38b146104ce578063fbe6a0b5146104ee578063fd14d5981461050e57005b8063cff6f53e1461046f578063e9a7231514610484578063ecbac7cf146104a457005b80639114bde8116100bd5780639114bde8146103fa5780639d4c2be91461040f578063b2731f0e1461042f578063bfb231d21461044f57005b806370a0966b1461038e5780638da5cb5b146103ae5780638f9607cb146103ce57005b80633624850e1161014757806350188c081161012457806350188c081461030b5780635d553a9f1461031e57806363a846f81461033e57806369ed1e0a1461036e57005b80633624850e146102b6578063366cb3f2146102cb5780634b0749cc146102eb57005b806316f0115b1161018057806316f0115b1461024b5780632160683114610261578063238393e41461028157806335e756c91461029657005b8062a36947146101ab578063074afa6d146101d3578063144fa6d71461021357005b366101a957005b005b3480156101b757600080fd5b506101c0610523565b6040519081526020015b60405180910390f35b3480156101df57600080fd5b506102036101ee366004611772565b60056020526000908152604090205460ff1681565b60405190151581526020016101ca565b34801561021f57600080fd5b5061023361022e366004611772565b610549565b6040516001600160a01b0390911681526020016101ca565b34801561025757600080fd5b506101c060095481565b34801561026d57600080fd5b5061020361027c366004611796565b610599565b34801561028d57600080fd5b506006546101c0565b3480156102a257600080fd5b506101c06102b1366004611796565b610988565b3480156102c257600080fd5b506101c06109ef565b3480156102d757600080fd5b506102036102e636600461181a565b610a05565b3480156102f757600080fd5b506102036103063660046118b0565b610a42565b34801561031757600080fd5b50426101c0565b34801561032a57600080fd5b506101c0610339366004611796565b610b0f565b34801561034a57600080fd5b50610203610359366004611772565b60016020526000908152604090205460ff1681565b34801561037a57600080fd5b506101a9610389366004611772565b610c5f565b34801561039a57600080fd5b506101a96103a9366004611772565b610ced565b3480156103ba57600080fd5b50600054610233906001600160a01b031681565b3480156103da57600080fd5b506103e3610d75565b6040805192151583526020830191909152016101ca565b34801561040657600080fd5b506101c0610ea7565b34801561041b57600080fd5b5061020361042a36600461181a565b611002565b34801561043b57600080fd5b506101c061044a366004611796565b611036565b34801561045b57600080fd5b5061020361046a366004611796565b611057565b34801561047b57600080fd5b5061020361108b565b34801561049057600080fd5b506101c061049f366004611772565b611105565b3480156104b057600080fd5b506101c06111b6565b3480156104c557600080fd5b506101c0611286565b3480156104da57600080fd5b506101a96104e9366004611772565b6114ca565b3480156104fa57600080fd5b506102036105093660046118ea565b611558565b34801561051a57600080fd5b506101c061158c565b6000600460028154811061053957610539611979565b9060005260206000200154905090565b600080546001600160a01b0316336001600160a01b03161461056a57600080fd5b50600a80546001600160a01b0383166001600160a01b0319918216811790925560028054909116909117905590565b3360009081526005602052604081206008546001820154146105d557805460ff191660019081178255600880546105d39284019190611610565b505b60006105df6111b6565b1180156105f157506105ef610ea7565b155b1561097f5780600101838154811061060b5761060b611979565b90600052602060002090602091828204019190069054906101000a900460ff1615156001151514156106785760405162461bcd60e51b81526020600482015260116024820152706974656d2079612061647175697269646f60781b60448201526064015b60405180910390fd5b6106806111b6565b600a546001600160a01b031663dd62ed3e336040516001600160e01b031960e084901b1681526001600160a01b039091166004820152306024820152604401602060405180830381865afa1580156106dc573d6000803e3d6000fd5b505050506040513d601f19601f82011682018060405250810190610700919061198f565b101561074e5760405162461bcd60e51b815260206004820152601760248201527f6170726f766163696f6e20696e737566696369656e7465000000000000000000604482015260640161066f565b6107566111b6565b600a546001600160a01b03166370a08231336040516001600160e01b031960e084901b1681526001600160a01b039091166004820152602401602060405180830381865afa1580156107ac573d6000803e3d6000fd5b505050506040513d601f19601f820116820180604052508101906107d0919061198f565b10156108135760405162461bcd60e51b815260206004820152601260248201527173616c646f20696e737566696369656e746560701b604482015260640161066f565b600a546001600160a01b03166323b872dd333061082e6111b6565b6040516001600160e01b031960e086901b1681526001600160a01b03938416600482015292909116602483015260448201526064016020604051808303816000875af1158015610882573d6000803e3d6000fd5b505050506040513d601f19601f820116820180604052508101906108a691906119a8565b6108ea5760405162461bcd60e51b81526020600482015260156024820152747472616e73666572656e6369612066616c6c69646160581b604482015260640161066f565b600783815481106108fd576108fd611979565b60009182526020822001805491610913836119db565b9190505550600181600101848154811061092f5761092f611979565b90600052602060002090602091828204019190066101000a81548160ff0219169083151502179055506109606111b6565b6009600082825461097191906119f6565b909155506001949350505050565b50600092915050565b600080546001600160a01b0316336001600160a01b0316146109a957600080fd5b6001600683815481106109be576109be611979565b90600052602060002090602091828204019190066101000a81548160ff021916908315150217905550819050919050565b6000600460008154811061053957610539611979565b600080546001600160a01b0316336001600160a01b031614610a2657600080fd5b8151610a3990600390602085019061166e565b50600192915050565b6001600160a01b038216600090815260056020908152604080832081518083018352815460ff1615158152600182018054845181870281018701909552808552869592948584019390929190830182828015610add57602002820191906000526020600020906000905b825461010083900a900460ff161515815260206001928301818104948501949093039092029101808411610aac5790505b505050505081525050905080602001518381518110610afe57610afe611979565b602002602001015191505092915050565b600080546001600160a01b0316336001600160a01b031614610b3057600080fd5b600a546040516370a0823160e01b815230600482015283916001600160a01b0316906370a0823190602401602060405180830381865afa158015610b78573d6000803e3d6000fd5b505050506040513d601f19601f82011682018060405250810190610b9c919061198f565b1015610bdf5760405162461bcd60e51b815260206004820152601260248201527173616c646f20696e737566696369656e746560701b604482015260640161066f565b600a5460005460405163a9059cbb60e01b81526001600160a01b0391821660048201526024810185905291169063a9059cbb906044016020604051808303816000875af1158015610c34573d6000803e3d6000fd5b505050506040513d601f19601f82011682018060405250810190610c5891906119a8565b5090919050565b6000546001600160a01b0316336001600160a01b031614610c7f57600080fd5b6001600160a01b038116610c9257600080fd5b6040516001600160a01b038216907f71614071b88dee5e0b2ae578a9dd7b2ebbe9ae832ba419dc0242cd065a290b6c90600090a26001600160a01b03166000908152600160208190526040909120805460ff19169091179055565b6000546001600160a01b0316336001600160a01b031614610d0d57600080fd5b6001600160a01b038116610d2057600080fd5b6040516001600160a01b038216907fa3b62bc36326052d97ea62d63c3d60308ed4c3ea8ac079dd8499f1e9c4f80c0f90600090a26001600160a01b03166000908152600160205260409020805460ff19169055565b33600090815260056020908152604080832081518083018352815460ff1615158152600182018054845181870281018701909552808552869586959394938582019390929091830182828015610e0a57602002820191906000526020600020906000905b825461010083900a900460ff161515815260206001928301818104948501949093039092029101808411610dd95790505b505050505081525050905060008060005b600654811015610e9d5760068181548110610e3857610e38611979565b90600052602060002090602091828204019190069054906101000a900460ff168015610e7e575083602001518181518110610e7557610e75611979565b60200260200101515b15610e8b57809250600191505b80610e95816119db565b915050610e1b565b5094909350915050565b33600090815260056020908152604080832081518083018352815460ff1615158152600182018054845181870281018701909552808552869592948584019390929190830182828015610f3957602002820191906000526020600020906000905b825461010083900a900460ff161515815260206001928301818104948501949093039092029101808411610f085790505b5050505050815250509050600080600090505b600654811015610ffb5760068181548110610f6957610f69611979565b90600052602060002090602091828204019190069054906101000a900460ff168015610faf575082602001518181518110610fa657610fa6611979565b60200260200101515b15610fe957610fe660078281548110610fca57610fca611979565b90600052602060002001546009546115ee90919063ffffffff16565b91505b80610ff3816119db565b915050610f4c565b5092915050565b600080546001600160a01b0316336001600160a01b03161461102357600080fd5b8151610a3990600490602085019061166e565b6007818154811061104657600080fd5b600091825260209091200154905081565b6006818154811061106757600080fd5b9060005260206000209060209182820401919006915054906101000a900460ff1681565b600080546001600160a01b0316336001600160a01b0316146110ac57600080fd5b600880546110bc91600691611610565b5060005b6008548110156110fd576000600782815481106110df576110df611979565b600091825260209091200155806110f5816119db565b9150506110c0565b506001905090565b6001600160a01b038116600090815260056020908152604080832081518083018352815460ff16151581526001820180548451818702810187019095528085528695929485840193909291908301828280156111a057602002820191906000526020600020906000905b825461010083900a900460ff16151581526020600192830181810494850194909303909202910180841161116f5790505b5050509190925250505060200151519392505050565b600060036000815481106111cc576111cc611979565b90600052602060002001544210158015611203575060036001815481106111f5576111f5611979565b906000526020600020015442105b1561121c57600460008154811061053957610539611979565b600360018154811061123057611230611979565b906000526020600020015442101580156112675750600360028154811061125957611259611979565b906000526020600020015442105b1561128057600460018154811061053957610539611979565b50600090565b60006003808154811061129b5761129b611979565b90600052602060002001544210156113035760405162461bcd60e51b815260206004820152602560248201527f6e6f2068612066696e616c697a61646f20656c207469656d706f2064656c20746044820152646f726e656f60d81b606482015260840161066f565b61130b610ea7565b600a546040516370a0823160e01b81523060048201526001600160a01b03909116906370a0823190602401602060405180830381865afa158015611353573d6000803e3d6000fd5b505050506040513d601f19601f82011682018060405250810190611377919061198f565b10156113cf5760405162461bcd60e51b815260206004820152602160248201527f73616c646f20696e737566696369656e746520656e20656c20636f6e747261746044820152606f60f81b606482015260840161066f565b600a546001600160a01b031663a9059cbb336113e9610ea7565b6040516001600160e01b031960e085901b1681526001600160a01b03909216600483015260248201526044016020604051808303816000875af1158015611434573d6000803e3d6000fd5b505050506040513d601f19601f8201168201806040525081019061145891906119a8565b61149a5760405162461bcd60e51b81526020600482015260136024820152727472616e73616363696f6e2066616c6c69646160681b604482015260640161066f565b336000908152600560205260409020600880546114bb916001840191611610565b506114c4610ea7565b91505090565b6000546001600160a01b0316336001600160a01b0316146114ea57600080fd5b6001600160a01b0381166114fd57600080fd5b600080546040516001600160a01b03808516939216917f8be0079c531659141344cd1fd0a4f28419497f9722a3daafe3b4186f6b6457e091a3600080546001600160a01b0319166001600160a01b0392909216919091179055565b600080546001600160a01b0316336001600160a01b03161461157957600080fd5b8151610a399060089060208501906116a9565b600080546001600160a01b0316336001600160a01b0316146115ad57600080fd5b600080546040516001600160a01b03909116914780156108fc02929091818181858888f193505050501580156115e7573d6000803e3d6000fd5b5047905090565b60008082116115fc57600080fd5b60006116088385611a0e565b949350505050565b82805482825590600052602060002090601f0160209004810192821561165e57600052602060002091601f016020900482015b8281111561165e578254825591600101919060010190611643565b5061166a929150611745565b5090565b82805482825590600052602060002090810192821561165e579160200282015b8281111561165e57825182559160200191906001019061168e565b82805482825590600052602060002090601f0160209004810192821561165e5791602002820160005b8382111561170f57835183826101000a81548160ff02191690831515021790555092602001926001016020816000010492830192600103026116d2565b801561173c5782816101000a81549060ff021916905560010160208160000104928301926001030261170f565b505061166a9291505b5b8082111561166a5760008155600101611746565b6001600160a01b038116811461176f57600080fd5b50565b60006020828403121561178457600080fd5b813561178f8161175a565b9392505050565b6000602082840312156117a857600080fd5b5035919050565b634e487b7160e01b600052604160045260246000fd5b604051601f8201601f1916810167ffffffffffffffff811182821017156117ee576117ee6117af565b604052919050565b600067ffffffffffffffff821115611810576118106117af565b5060051b60200190565b6000602080838503121561182d57600080fd5b823567ffffffffffffffff81111561184457600080fd5b8301601f8101851361185557600080fd5b8035611868611863826117f6565b6117c5565b81815260059190911b8201830190838101908783111561188757600080fd5b928401925b828410156118a55783358252928401929084019061188c565b979650505050505050565b600080604083850312156118c357600080fd5b82356118ce8161175a565b946020939093013593505050565b801515811461176f57600080fd5b600060208083850312156118fd57600080fd5b823567ffffffffffffffff81111561191457600080fd5b8301601f8101851361192557600080fd5b8035611933611863826117f6565b81815260059190911b8201830190838101908783111561195257600080fd5b928401925b828410156118a557833561196a816118dc565b82529284019290840190611957565b634e487b7160e01b600052603260045260246000fd5b6000602082840312156119a157600080fd5b5051919050565b6000602082840312156119ba57600080fd5b815161178f816118dc565b634e487b7160e01b600052601160045260246000fd5b60006000198214156119ef576119ef6119c5565b5060010190565b60008219821115611a0957611a096119c5565b500190565b600082611a2b57634e487b7160e01b600052601260045260246000fd5b50049056fea2646970667358221220b14106a1729956ea521b52ad8d2bb3a58c54a8aa3028fbfd2c4de0afd88fb98964736f6c634300080a0033",
    "sourcePath": "c:/Users/STC/Documents/GitHub/FootBall-ICO/contracts/MiFavorite/fan.sol",
    "compiler": {
        "name": "solc",
        "version": "0.8.10+commit.fc410830"
    },
    "functionHashes": {
        "ReIniciar()": "cff6f53e",
        "admin(address)": "63a846f8",
        "fans(address)": "074afa6d",
        "fin()": "00a36947",
        "ganador()": "9114bde8",
        "inicio()": "3624850e",
        "items(uint256)": "bfb231d2",
        "largoFanItems(address)": "e9a72315",
        "largoItems()": "238393e4",
        "makeNewAdmin(address)": "69ed1e0a",
        "makeRemoveAdmin(address)": "70a0966b",
        "owner()": "8da5cb5b",
        "pool()": "16f0115b",
        "reclamar()": "eecd9c85",
        "redimBNB()": "fd14d598",
        "redimToken(uint256)": "5d553a9f",
        "setGanador(uint256)": "35e756c9",
        "setToken(address)": "144fa6d7",
        "tiempo()": "50188c08",
        "transferOwnership(address)": "f2fde38b",
        "updateBase(bool[])": "fbe6a0b5",
        "updateFases(uint256[])": "366cb3f2",
        "updatePrecios(uint256[])": "9d4c2be9",
        "valor()": "ecbac7cf",
        "verFanItems(address,uint256)": "4b0749cc",
        "verGanador()": "8f9607cb",
        "votar(uint256)": "21606831",
        "votos(uint256)": "b2731f0e"
    },
    "gasEstimates": {
        "creation": {
            "codeDepositCost": "1351600",
            "executionCost": "infinite",
            "totalCost": "infinite"
        },
        "external": {
            "": "186",
            "ReIniciar()": "infinite",
            "admin(address)": "2614",
            "fans(address)": "2594",
            "fin()": "4531",
            "ganador()": "infinite",
            "inicio()": "4530",
            "items(uint256)": "6347",
            "largoFanItems(address)": "infinite",
            "largoItems()": "2371",
            "makeNewAdmin(address)": "28087",
            "makeRemoveAdmin(address)": "28004",
            "owner()": "2405",
            "pool()": "2330",
            "reclamar()": "infinite",
            "redimBNB()": "infinite",
            "redimToken(uint256)": "infinite",
            "setGanador(uint256)": "30631",
            "setToken(address)": "51124",
            "tiempo()": "225",
            "transferOwnership(address)": "30478",
            "updateBase(bool[])": "infinite",
            "updateFases(uint256[])": "infinite",
            "updatePrecios(uint256[])": "infinite",
            "valor()": "21808",
            "verFanItems(address,uint256)": "infinite",
            "verGanador()": "infinite",
            "votar(uint256)": "infinite",
            "votos(uint256)": "4653"
        }
    }
}