{
    "contractName": "MarketV2",
    "abi": [
        {
            "inputs": [],
            "stateMutability": "nonpayable",
            "type": "constructor"
        },
        {
            "anonymous": false,
            "inputs": [
                {
                    "indexed": true,
                    "internalType": "address",
                    "name": "admin",
                    "type": "address"
                }
            ],
            "name": "AdminRemoved",
            "type": "event"
        },
        {
            "anonymous": false,
            "inputs": [
                {
                    "indexed": true,
                    "internalType": "address",
                    "name": "admin",
                    "type": "address"
                }
            ],
            "name": "NewAdmin",
            "type": "event"
        },
        {
            "anonymous": false,
            "inputs": [
                {
                    "indexed": true,
                    "internalType": "address",
                    "name": "previousOwner",
                    "type": "address"
                },
                {
                    "indexed": true,
                    "internalType": "address",
                    "name": "newOwner",
                    "type": "address"
                }
            ],
            "name": "OwnershipTransferred",
            "type": "event"
        },
        {
            "inputs": [],
            "name": "MAX_BNB",
            "outputs": [
                {
                    "internalType": "uint256",
                    "name": "",
                    "type": "uint256"
                }
            ],
            "stateMutability": "view",
            "type": "function"
        },
        {
            "inputs": [
                {
                    "internalType": "address",
                    "name": "_user",
                    "type": "address"
                },
                {
                    "internalType": "uint256",
                    "name": "_carta",
                    "type": "uint256"
                }
            ],
            "name": "NoStakingCard",
            "outputs": [
                {
                    "internalType": "bool",
                    "name": "",
                    "type": "bool"
                }
            ],
            "stateMutability": "nonpayable",
            "type": "function"
        },
        {
            "inputs": [],
            "name": "TIME_CLAIM",
            "outputs": [
                {
                    "internalType": "uint256",
                    "name": "",
                    "type": "uint256"
                }
            ],
            "stateMutability": "view",
            "type": "function"
        },
        {
            "inputs": [
                {
                    "internalType": "address payable",
                    "name": "_adminWallet",
                    "type": "address"
                }
            ],
            "name": "UpdateDEVSWallet",
            "outputs": [
                {
                    "internalType": "bool",
                    "name": "",
                    "type": "bool"
                }
            ],
            "stateMutability": "nonpayable",
            "type": "function"
        },
        {
            "inputs": [
                {
                    "internalType": "address payable",
                    "name": "_stakingContract",
                    "type": "address"
                }
            ],
            "name": "UpdateStakingContract",
            "outputs": [
                {
                    "internalType": "bool",
                    "name": "",
                    "type": "bool"
                }
            ],
            "stateMutability": "nonpayable",
            "type": "function"
        },
        {
            "inputs": [
                {
                    "internalType": "string",
                    "name": "_nombre",
                    "type": "string"
                },
                {
                    "internalType": "uint256",
                    "name": "_value",
                    "type": "uint256"
                },
                {
                    "internalType": "bool",
                    "name": "_stakear",
                    "type": "bool"
                }
            ],
            "name": "addItem",
            "outputs": [
                {
                    "internalType": "bool",
                    "name": "",
                    "type": "bool"
                }
            ],
            "stateMutability": "nonpayable",
            "type": "function"
        },
        {
            "inputs": [
                {
                    "internalType": "address",
                    "name": "",
                    "type": "address"
                }
            ],
            "name": "admin",
            "outputs": [
                {
                    "internalType": "bool",
                    "name": "",
                    "type": "bool"
                }
            ],
            "stateMutability": "view",
            "type": "function"
        },
        {
            "inputs": [],
            "name": "buyCoins",
            "outputs": [
                {
                    "internalType": "bool",
                    "name": "",
                    "type": "bool"
                }
            ],
            "stateMutability": "payable",
            "type": "function"
        },
        {
            "inputs": [
                {
                    "internalType": "uint256",
                    "name": "_id",
                    "type": "uint256"
                },
                {
                    "internalType": "address",
                    "name": "_upline",
                    "type": "address"
                }
            ],
            "name": "buyItem",
            "outputs": [
                {
                    "internalType": "bool",
                    "name": "",
                    "type": "bool"
                }
            ],
            "stateMutability": "payable",
            "type": "function"
        },
        {
            "inputs": [
                {
                    "internalType": "address",
                    "name": "_user",
                    "type": "address"
                },
                {
                    "internalType": "uint256",
                    "name": "_carta",
                    "type": "uint256"
                }
            ],
            "name": "consultarCarta",
            "outputs": [
                {
                    "internalType": "uint256",
                    "name": "",
                    "type": "uint256"
                }
            ],
            "stateMutability": "view",
            "type": "function"
        },
        {
            "inputs": [],
            "name": "devsWallet",
            "outputs": [
                {
                    "internalType": "address payable",
                    "name": "",
                    "type": "address"
                }
            ],
            "stateMutability": "view",
            "type": "function"
        },
        {
            "inputs": [
                {
                    "internalType": "uint256",
                    "name": "_id",
                    "type": "uint256"
                },
                {
                    "internalType": "string",
                    "name": "_nombre",
                    "type": "string"
                },
                {
                    "internalType": "uint256",
                    "name": "_value",
                    "type": "uint256"
                },
                {
                    "internalType": "bool",
                    "name": "_stakear",
                    "type": "bool"
                }
            ],
            "name": "editItem",
            "outputs": [
                {
                    "internalType": "bool",
                    "name": "",
                    "type": "bool"
                }
            ],
            "stateMutability": "nonpayable",
            "type": "function"
        },
        {
            "inputs": [
                {
                    "internalType": "address",
                    "name": "",
                    "type": "address"
                },
                {
                    "internalType": "uint256",
                    "name": "",
                    "type": "uint256"
                }
            ],
            "name": "inventario",
            "outputs": [
                {
                    "internalType": "string",
                    "name": "nombre",
                    "type": "string"
                },
                {
                    "internalType": "uint256",
                    "name": "valor",
                    "type": "uint256"
                },
                {
                    "internalType": "bool",
                    "name": "stakear",
                    "type": "bool"
                }
            ],
            "stateMutability": "view",
            "type": "function"
        },
        {
            "inputs": [
                {
                    "internalType": "address",
                    "name": "",
                    "type": "address"
                }
            ],
            "name": "investors",
            "outputs": [
                {
                    "internalType": "uint256",
                    "name": "balance",
                    "type": "uint256"
                },
                {
                    "internalType": "uint256",
                    "name": "payAt",
                    "type": "uint256"
                }
            ],
            "stateMutability": "view",
            "type": "function"
        },
        {
            "inputs": [
                {
                    "internalType": "uint256",
                    "name": "",
                    "type": "uint256"
                }
            ],
            "name": "items",
            "outputs": [
                {
                    "internalType": "string",
                    "name": "nombre",
                    "type": "string"
                },
                {
                    "internalType": "uint256",
                    "name": "valor",
                    "type": "uint256"
                },
                {
                    "internalType": "bool",
                    "name": "stakear",
                    "type": "bool"
                }
            ],
            "stateMutability": "view",
            "type": "function"
        },
        {
            "inputs": [
                {
                    "internalType": "address",
                    "name": "_user",
                    "type": "address"
                }
            ],
            "name": "largoInventario",
            "outputs": [
                {
                    "internalType": "uint256",
                    "name": "",
                    "type": "uint256"
                }
            ],
            "stateMutability": "view",
            "type": "function"
        },
        {
            "inputs": [],
            "name": "largoItems",
            "outputs": [
                {
                    "internalType": "uint256",
                    "name": "",
                    "type": "uint256"
                }
            ],
            "stateMutability": "view",
            "type": "function"
        },
        {
            "inputs": [
                {
                    "internalType": "address payable",
                    "name": "_newadmin",
                    "type": "address"
                }
            ],
            "name": "makeNewAdmin",
            "outputs": [],
            "stateMutability": "nonpayable",
            "type": "function"
        },
        {
            "inputs": [
                {
                    "internalType": "address payable",
                    "name": "_oldadmin",
                    "type": "address"
                }
            ],
            "name": "makeRemoveAdmin",
            "outputs": [],
            "stateMutability": "nonpayable",
            "type": "function"
        },
        {
            "inputs": [
                {
                    "internalType": "uint256",
                    "name": "",
                    "type": "uint256"
                }
            ],
            "name": "niveles",
            "outputs": [
                {
                    "internalType": "uint256",
                    "name": "",
                    "type": "uint256"
                }
            ],
            "stateMutability": "view",
            "type": "function"
        },
        {
            "inputs": [],
            "name": "owner",
            "outputs": [
                {
                    "internalType": "address payable",
                    "name": "",
                    "type": "address"
                }
            ],
            "stateMutability": "view",
            "type": "function"
        },
        {
            "inputs": [
                {
                    "internalType": "uint256",
                    "name": "_value",
                    "type": "uint256"
                }
            ],
            "name": "sellCoins",
            "outputs": [
                {
                    "internalType": "bool",
                    "name": "",
                    "type": "bool"
                }
            ],
            "stateMutability": "nonpayable",
            "type": "function"
        },
        {
            "inputs": [],
            "name": "stakingContract",
            "outputs": [
                {
                    "internalType": "address payable",
                    "name": "",
                    "type": "address"
                }
            ],
            "stateMutability": "view",
            "type": "function"
        },
        {
            "inputs": [
                {
                    "internalType": "address payable",
                    "name": "newOwner",
                    "type": "address"
                }
            ],
            "name": "transferOwnership",
            "outputs": [],
            "stateMutability": "nonpayable",
            "type": "function"
        },
        {
            "inputs": [
                {
                    "internalType": "address",
                    "name": "",
                    "type": "address"
                }
            ],
            "name": "upline",
            "outputs": [
                {
                    "internalType": "address",
                    "name": "",
                    "type": "address"
                }
            ],
            "stateMutability": "view",
            "type": "function"
        },
        {
            "inputs": [],
            "name": "ventaPublica",
            "outputs": [
                {
                    "internalType": "uint256",
                    "name": "",
                    "type": "uint256"
                }
            ],
            "stateMutability": "view",
            "type": "function"
        },
        {
            "inputs": [
                {
                    "internalType": "address",
                    "name": "_user",
                    "type": "address"
                }
            ],
            "name": "verInventario",
            "outputs": [
                {
                    "components": [
                        {
                            "internalType": "string",
                            "name": "nombre",
                            "type": "string"
                        },
                        {
                            "internalType": "uint256",
                            "name": "valor",
                            "type": "uint256"
                        },
                        {
                            "internalType": "bool",
                            "name": "stakear",
                            "type": "bool"
                        }
                    ],
                    "internalType": "struct MarketV2.Item[]",
                    "name": "invent",
                    "type": "tuple[]"
                }
            ],
            "stateMutability": "view",
            "type": "function"
        }
    ],
    "bytecode": "600280546001600160a01b031916731c261de3da6873c225079c73d7ba1b111eb9a5b31781556362891a90600455670de0b6b3a76400006005556201518060065560e06040526003608081815260a092909252600160c0526200006591600791620000a7565b503480156200007357600080fd5b50600080546001600160a01b0319163390811782558152600160208190526040909120805460ff1916909117905562000113565b828054828255906000526020600020908101928215620000ea579160200282015b82811115620000ea578251829060ff16905591602001919060010190620000c8565b50620000f8929150620000fc565b5090565b5b80821115620000f85760008155600101620000fd565b611b4680620001236000396000f3fe60806040526004361061019c5760003560e01c80638792fa47116100ec578063bbf30f2d1161008a578063c991c47411610064578063c991c474146104e5578063d60fd9b914610505578063ee99205c1461051b578063f2fde38b1461053b57600080fd5b8063bbf30f2d1461048f578063bfb231d2146104af578063c29caa33146104cf57600080fd5b806398335894116100c6578063983358941461040b5780639a777d5d1461042b578063aaa272a614610433578063ab97fd601461046057600080fd5b80638792fa47146103b55780638da5cb5b146103cb57806391074658146103eb57600080fd5b806369ed1e0a1161015957806370a0966b1161013357806370a0966b146103425780637383d7091461036257806382655d0614610375578063875ede141461039557600080fd5b806369ed1e0a146102b75780636aae4a0e146102d95780636f7bc9be146102f957600080fd5b80630e3bd352146101a15780631f3d4cde146101f4578063238393e41461022257806351a4cd731461023757806363a846f814610267578063667682ec14610297575b600080fd5b3480156101ad57600080fd5b506101d76101bc366004611727565b6008602052600090815260409020546001600160a01b031681565b6040516001600160a01b0390911681526020015b60405180910390f35b34801561020057600080fd5b5061021461020f366004611744565b61055b565b6040519081526020016101eb565b34801561022e57600080fd5b50600b54610214565b34801561024357600080fd5b50610257610252366004611770565b6106d0565b60405190151581526020016101eb565b34801561027357600080fd5b50610257610282366004611727565b60016020526000908152604090205460ff1681565b3480156102a357600080fd5b506102576102b2366004611727565b6108ac565b3480156102c357600080fd5b506102d76102d2366004611727565b61093a565b005b3480156102e557600080fd5b506102576102f436600461183c565b6109c8565b34801561030557600080fd5b5061032d610314366004611727565b6009602052600090815260409020805460019091015482565b604080519283526020830191909152016101eb565b34801561034e57600080fd5b506102d761035d366004611727565b610a75565b61025761037036600461189d565b610afd565b34801561038157600080fd5b506102576103903660046118cd565b610e7e565b3480156103a157600080fd5b506102576103b0366004611744565b610f09565b3480156103c157600080fd5b5061021460045481565b3480156103d757600080fd5b506000546101d7906001600160a01b031681565b3480156103f757600080fd5b50610257610406366004611727565b610fca565b34801561041757600080fd5b50610214610426366004611770565b611040565b610257611061565b34801561043f57600080fd5b5061045361044e366004611727565b611128565b6040516101eb9190611971565b34801561046c57600080fd5b5061048061047b366004611744565b61124e565b6040516101eb939291906119f4565b34801561049b57600080fd5b506002546101d7906001600160a01b031681565b3480156104bb57600080fd5b506104806104ca366004611770565b611321565b3480156104db57600080fd5b5061021460055481565b3480156104f157600080fd5b50610214610500366004611727565b611354565b34801561051157600080fd5b5061021460065481565b34801561052757600080fd5b506003546101d7906001600160a01b031681565b34801561054757600080fd5b506102d7610556366004611727565b611477565b6001600160a01b0382166000908152600a6020908152604080832080548251818502810185019093528083528493849084015b8282101561067157838290600052602060002090600302016040518060600160405290816000820180546105c190611a1e565b80601f01602080910402602001604051908101604052809291908181526020018280546105ed90611a1e565b801561063a5780601f1061060f5761010080835404028352916020019161063a565b820191906000526020600020905b81548152906001019060200180831161061d57829003601f168201915b505050918352505060018281015460208084019190915260029093015460ff1615156040909201919091529183529201910161058e565b50505050905080838151811061068957610689611a59565b602002602001015160400151151560011515146106a75760006106c6565b8083815181106106b9576106b9611a59565b6020026020010151602001515b9150505b92915050565b336000908152600960205260408120805483111561072b5760405162461bcd60e51b81526020600482015260136024820152726e6f207469656e6573206573652073616c646f60681b60448201526064015b60405180910390fd5b6005548311156107745760405162461bcd60e51b81526020600482015260146024820152736d6178696d6f203120626e6220706f722064696160601b6044820152606401610722565b4260065482600101546107879190611a85565b11156107d55760405162461bcd60e51b815260206004820152601760248201527f6e6f206573207469656d706f20646520726574697261720000000000000000006044820152606401610722565b824710156108255760405162461bcd60e51b815260206004820152601e60248201527f6e6f206861792062616c616e63652070617261207472616e73666572697200006044820152606401610722565b604051339084156108fc029085906000818181858888f193505050506108865760405162461bcd60e51b815260206004820152601660248201527566616c6c6f206c61207472616e73666572656e63696160501b6044820152606401610722565b8281600001600082825461089a9190611a9d565b90915550504260019182015592915050565b600080546001600160a01b0316336001600160a01b0316146108cd57600080fd5b6003546001600160a01b0316156108e357600080fd5b50600380546001600160a01b039081166000908152600160208190526040808320805460ff1990811690915585546001600160a01b031916948716948517909555928252919020805490921681179091555b919050565b6000546001600160a01b0316336001600160a01b03161461095a57600080fd5b6001600160a01b03811661096d57600080fd5b6040516001600160a01b038216907f71614071b88dee5e0b2ae578a9dd7b2ebbe9ae832ba419dc0242cd065a290b6c90600090a26001600160a01b03166000908152600160208190526040909120805460ff19169091179055565b600080546001600160a01b0316336001600160a01b0316146109e957600080fd5b6040518060600160405280858152602001848152602001831515815250600b8681548110610a1957610a19611a59565b90600052602060002090600302016000820151816000019080519060200190610a43929190611676565b5060208201516001828101919091556040909201516002909101805460ff191691151591909117905595945050505050565b6000546001600160a01b0316336001600160a01b031614610a9557600080fd5b6001600160a01b038116610aa857600080fd5b6040516001600160a01b038216907fa3b62bc36326052d97ea62d63c3d60308ed4c3ea8ac079dd8499f1e9c4f80c0f90600090a26001600160a01b03166000908152600160205260409020805460ff19169055565b600080600b8481548110610b1357610b13611a59565b9060005260206000209060030201604051806060016040529081600082018054610b3c90611a1e565b80601f0160208091040260200160405190810160405280929190818152602001828054610b6890611a1e565b8015610bb55780601f10610b8a57610100808354040283529160200191610bb5565b820191906000526020600020905b815481529060010190602001808311610b9857829003601f168201915b5050509183525050600182015460208083019190915260029092015460ff161515604090910152810151909150341015610c315760405162461bcd60e51b815260206004820152601e60248201527f706f72206661766f7220656e76696520737566696369656e746520626e6200006044820152606401610722565b600454421015610c835760405162461bcd60e51b815260206004820181905260248201527f6e6f206573207469656d706f206465206c612076656e7461207075626c6963616044820152606401610722565b6002546001600160a01b03166108fc610ca86064610ca234600a611505565b9061153e565b6040518115909202916000818181858888f19350505050158015610cd0573d6000803e3d6000fd5b506001600160a01b03831615801590610cff5750336000908152600860205260409020546001600160a01b0316155b8015610d1457506001600160a01b0383163314155b15610d425733600090815260086020526040902080546001600160a01b0319166001600160a01b0385161790555b336000908152600860205260409020546001600160a01b031615610dc857600354605a906001600160a01b03166108fc610d996064610ca2610d92610d8b338960200151611558565b879061165b565b3490611505565b6040518115909202916000818181858888f19350505050158015610dc1573d6000803e3d6000fd5b5050610e11565b6003546001600160a01b03166108fc610de76064610ca234605a611505565b6040518115909202916000818181858888f19350505050158015610e0f573d6000803e3d6000fd5b505b336000908152600a60209081526040822080546001810182559083529181902083518051859460030290920192610e4d92849290910190611676565b5060208201516001828101919091556040909201516002909101805460ff1916911515919091179055949350505050565b600080546001600160a01b0316336001600160a01b031614610e9f57600080fd5b60408051606081018252858152602080820186905284151592820192909252600b805460018101825560009190915281518051929360039092027f0175b7a638427703f0dbe7bb9bbf987a2551717b34e79f33b5b1008d1fa01db90192610e4d9284920190611676565b6003546000906001600160a01b0316336001600160a01b031614610f2c57600080fd5b6001600160a01b0383166000908152600a602052604090208054819084908110610f5857610f58611a59565b600091825260209091206002600390920201015460ff16151560011415610fb9576000818481548110610f8d57610f8d611a59565b60009182526020909120600390910201600201805460ff191691151591909117905550600190506106ca565b60009150506106ca565b5092915050565b600080546001600160a01b0316336001600160a01b031614610feb57600080fd5b50600280546001600160a01b039081166000908152600160208190526040808320805460ff1990811690915585546001600160a01b031916969094169586179094559381529190912080549091168217905590565b6007818154811061105057600080fd5b600091825260209091200154905081565b33600090815260096020526040812080543490819083908590611085908490611a85565b9091555050600280546001600160a01b0316906108fc906110ae90606490610ca2908690611505565b6040518115909202916000818181858888f193505050501580156110d6573d6000803e3d6000fd5b506003546001600160a01b03166108fc6110f66064610ca2856008611505565b6040518115909202916000818181858888f1935050505015801561111e573d6000803e3d6000fd5b5060019250505090565b6001600160a01b0381166000908152600a60209081526040808320805482518185028101850190935280835260609492939192909184015b82821015611243578382906000526020600020906003020160405180606001604052908160008201805461119390611a1e565b80601f01602080910402602001604051908101604052809291908181526020018280546111bf90611a1e565b801561120c5780601f106111e15761010080835404028352916020019161120c565b820191906000526020600020905b8154815290600101906020018083116111ef57829003601f168201915b505050918352505060018281015460208084019190915260029093015460ff16151560409092019190915291835292019101611160565b505050509050919050565b600a602052816000526040600020818154811061126a57600080fd5b90600052602060002090600302016000915091505080600001805461128e90611a1e565b80601f01602080910402602001604051908101604052809291908181526020018280546112ba90611a1e565b80156113075780601f106112dc57610100808354040283529160200191611307565b820191906000526020600020905b8154815290600101906020018083116112ea57829003601f168201915b50505050600183015460029093015491929160ff16905083565b600b818154811061133157600080fd5b906000526020600020906003020160009150905080600001805461128e90611a1e565b6001600160a01b0381166000908152600a6020908152604080832080548251818502810185019093528083528493849084015b8282101561146a57838290600052602060002090600302016040518060600160405290816000820180546113ba90611a1e565b80601f01602080910402602001604051908101604052809291908181526020018280546113e690611a1e565b80156114335780601f1061140857610100808354040283529160200191611433565b820191906000526020600020905b81548152906001019060200180831161141657829003601f168201915b505050918352505060018281015460208084019190915260029093015460ff16151560409092019190915291835292019101611387565b5050915195945050505050565b6000546001600160a01b0316336001600160a01b03161461149757600080fd5b6001600160a01b0381166114aa57600080fd5b600080546040516001600160a01b03808516939216917f8be0079c531659141344cd1fd0a4f28419497f9722a3daafe3b4186f6b6457e091a3600080546001600160a01b0319166001600160a01b0392909216919091179055565b600082611514575060006106ca565b60006115208385611ab4565b90508261152d8583611ad3565b1461153757600080fd5b9392505050565b600080821161154c57600080fd5b60006106c68385611ad3565b6000805b600754811015610fc3576001600160a01b038481166000908152600860205260409020541661158a57610fc3565b6115bf6064610ca2600784815481106115a5576115a5611a59565b90600052602060002001548661150590919063ffffffff16565b6001600160a01b0380861660009081526008602090815260408083205490931682526009905290812080549091906115f8908490611a85565b90915550506001600160a01b03938416600090815260086020526040902054600780549190951694908290811061163157611631611a59565b9060005260206000200154826116479190611a85565b91508061165381611af5565b91505061155c565b60008282111561166a57600080fd5b60006106c68385611a9d565b82805461168290611a1e565b90600052602060002090601f0160209004810192826116a457600085556116ea565b82601f106116bd57805160ff19168380011785556116ea565b828001600101855582156116ea579182015b828111156116ea5782518255916020019190600101906116cf565b506116f69291506116fa565b5090565b5b808211156116f657600081556001016116fb565b6001600160a01b038116811461172457600080fd5b50565b60006020828403121561173957600080fd5b81356115378161170f565b6000806040838503121561175757600080fd5b82356117628161170f565b946020939093013593505050565b60006020828403121561178257600080fd5b5035919050565b634e487b7160e01b600052604160045260246000fd5b600082601f8301126117b057600080fd5b813567ffffffffffffffff808211156117cb576117cb611789565b604051601f8301601f19908116603f011681019082821181831017156117f3576117f3611789565b8160405283815286602085880101111561180c57600080fd5b836020870160208301376000602085830101528094505050505092915050565b8035801515811461093557600080fd5b6000806000806080858703121561185257600080fd5b84359350602085013567ffffffffffffffff81111561187057600080fd5b61187c8782880161179f565b935050604085013591506118926060860161182c565b905092959194509250565b600080604083850312156118b057600080fd5b8235915060208301356118c28161170f565b809150509250929050565b6000806000606084860312156118e257600080fd5b833567ffffffffffffffff8111156118f957600080fd5b6119058682870161179f565b9350506020840135915061191b6040850161182c565b90509250925092565b6000815180845260005b8181101561194a5760208185018101518683018201520161192e565b8181111561195c576000602083870101525b50601f01601f19169290920160200192915050565b60006020808301818452808551808352604092508286019150828160051b87010184880160005b838110156119e657603f198984030185528151606081518186526119be82870182611924565b838b0151878c0152928901511515958901959095525094870194925090860190600101611998565b509098975050505050505050565b606081526000611a076060830186611924565b602083019490945250901515604090910152919050565b600181811c90821680611a3257607f821691505b60208210811415611a5357634e487b7160e01b600052602260045260246000fd5b50919050565b634e487b7160e01b600052603260045260246000fd5b634e487b7160e01b600052601160045260246000fd5b60008219821115611a9857611a98611a6f565b500190565b600082821015611aaf57611aaf611a6f565b500390565b6000816000190483118215151615611ace57611ace611a6f565b500290565b600082611af057634e487b7160e01b600052601260045260246000fd5b500490565b6000600019821415611b0957611b09611a6f565b506001019056fea2646970667358221220be2cd97a52a8376b9cd77f281655ace230ff07f2aa752e16be50879ecc5e9f7564736f6c634300080a0033",
    "sourcePath": "c:/Users/STC/Documents/GitHub/Solitare-Crypto/contracts/Market 2.0/Market-V2.sol",
    "compiler": {
        "name": "solc",
        "version": "0.8.10+commit.fc410830"
    },
    "functionHashes": {
        "MAX_BNB()": "c29caa33",
        "NoStakingCard(address,uint256)": "875ede14",
        "TIME_CLAIM()": "d60fd9b9",
        "UpdateDEVSWallet(address)": "91074658",
        "UpdateStakingContract(address)": "667682ec",
        "addItem(string,uint256,bool)": "82655d06",
        "admin(address)": "63a846f8",
        "buyCoins()": "9a777d5d",
        "buyItem(uint256,address)": "7383d709",
        "consultarCarta(address,uint256)": "1f3d4cde",
        "devsWallet()": "bbf30f2d",
        "editItem(uint256,string,uint256,bool)": "6aae4a0e",
        "inventario(address,uint256)": "ab97fd60",
        "investors(address)": "6f7bc9be",
        "items(uint256)": "bfb231d2",
        "largoInventario(address)": "c991c474",
        "largoItems()": "238393e4",
        "makeNewAdmin(address)": "69ed1e0a",
        "makeRemoveAdmin(address)": "70a0966b",
        "niveles(uint256)": "98335894",
        "owner()": "8da5cb5b",
        "sellCoins(uint256)": "51a4cd73",
        "stakingContract()": "ee99205c",
        "transferOwnership(address)": "f2fde38b",
        "upline(address)": "0e3bd352",
        "ventaPublica()": "8792fa47",
        "verInventario(address)": "aaa272a6"
    },
    "gasEstimates": {
        "creation": {
            "codeDepositCost": "1396400",
            "executionCost": "infinite",
            "totalCost": "infinite"
        },
        "external": {
            "MAX_BNB()": "2384",
            "NoStakingCard(address,uint256)": "33574",
            "TIME_CLAIM()": "2361",
            "UpdateDEVSWallet(address)": "77579",
            "UpdateStakingContract(address)": "79764",
            "addItem(string,uint256,bool)": "infinite",
            "admin(address)": "2637",
            "buyCoins()": "infinite",
            "buyItem(uint256,address)": "infinite",
            "consultarCarta(address,uint256)": "infinite",
            "devsWallet()": "2371",
            "editItem(uint256,string,uint256,bool)": "infinite",
            "inventario(address,uint256)": "infinite",
            "investors(address)": "4742",
            "items(uint256)": "infinite",
            "largoInventario(address)": "infinite",
            "largoItems()": "2360",
            "makeNewAdmin(address)": "28022",
            "makeRemoveAdmin(address)": "28003",
            "niveles(uint256)": "4620",
            "owner()": "2394",
            "sellCoins(uint256)": "infinite",
            "stakingContract()": "2414",
            "transferOwnership(address)": "30522",
            "upline(address)": "2565",
            "ventaPublica()": "2341",
            "verInventario(address)": "infinite"
        },
        "internal": {
            "referRedward(address,uint256)": "infinite"
        }
    }
}