{
    "contractName": "Market",
    "abi": [
        {
            "inputs": [],
            "stateMutability": "nonpayable",
            "type": "constructor"
        },
        {
            "anonymous": false,
            "inputs": [
                {
                    "indexed": true,
                    "internalType": "address",
                    "name": "admin",
                    "type": "address"
                }
            ],
            "name": "AdminRemoved",
            "type": "event"
        },
        {
            "anonymous": false,
            "inputs": [
                {
                    "indexed": true,
                    "internalType": "address",
                    "name": "admin",
                    "type": "address"
                }
            ],
            "name": "NewAdmin",
            "type": "event"
        },
        {
            "anonymous": false,
            "inputs": [
                {
                    "indexed": true,
                    "internalType": "address",
                    "name": "previousOwner",
                    "type": "address"
                },
                {
                    "indexed": true,
                    "internalType": "address",
                    "name": "newOwner",
                    "type": "address"
                }
            ],
            "name": "OwnershipTransferred",
            "type": "event"
        },
        {
            "inputs": [
                {
                    "internalType": "address",
                    "name": "_tokenERC20",
                    "type": "address"
                }
            ],
            "name": "ChangePrincipalToken",
            "outputs": [
                {
                    "internalType": "bool",
                    "name": "",
                    "type": "bool"
                }
            ],
            "stateMutability": "nonpayable",
            "type": "function"
        },
        {
            "inputs": [
                {
                    "internalType": "address",
                    "name": "_tokenERC20",
                    "type": "address"
                }
            ],
            "name": "ChangeTokenOTRO",
            "outputs": [
                {
                    "internalType": "bool",
                    "name": "",
                    "type": "bool"
                }
            ],
            "stateMutability": "nonpayable",
            "type": "function"
        },
        {
            "inputs": [
                {
                    "internalType": "string",
                    "name": "_nombre",
                    "type": "string"
                },
                {
                    "internalType": "string",
                    "name": "_tipo",
                    "type": "string"
                },
                {
                    "internalType": "uint256",
                    "name": "_value",
                    "type": "uint256"
                },
                {
                    "internalType": "bool",
                    "name": "_acumulable",
                    "type": "bool"
                },
                {
                    "internalType": "bool",
                    "name": "_ilimitado",
                    "type": "bool"
                },
                {
                    "internalType": "uint256",
                    "name": "_cantidad",
                    "type": "uint256"
                }
            ],
            "name": "addItem",
            "outputs": [
                {
                    "internalType": "bool",
                    "name": "",
                    "type": "bool"
                }
            ],
            "stateMutability": "nonpayable",
            "type": "function"
        },
        {
            "inputs": [
                {
                    "internalType": "string",
                    "name": "_tipo",
                    "type": "string"
                },
                {
                    "internalType": "bool",
                    "name": "_ilimitado",
                    "type": "bool"
                },
                {
                    "internalType": "uint256",
                    "name": "_cantidad",
                    "type": "uint256"
                }
            ],
            "name": "addOption",
            "outputs": [
                {
                    "internalType": "bool",
                    "name": "",
                    "type": "bool"
                }
            ],
            "stateMutability": "nonpayable",
            "type": "function"
        },
        {
            "inputs": [
                {
                    "internalType": "address",
                    "name": "",
                    "type": "address"
                }
            ],
            "name": "admin",
            "outputs": [
                {
                    "internalType": "bool",
                    "name": "",
                    "type": "bool"
                }
            ],
            "stateMutability": "view",
            "type": "function"
        },
        {
            "inputs": [],
            "name": "adminWallet",
            "outputs": [
                {
                    "internalType": "address",
                    "name": "",
                    "type": "address"
                }
            ],
            "stateMutability": "view",
            "type": "function"
        },
        {
            "inputs": [
                {
                    "internalType": "uint256",
                    "name": "_value",
                    "type": "uint256"
                },
                {
                    "internalType": "address",
                    "name": "_user",
                    "type": "address"
                }
            ],
            "name": "asignarCoinsTo",
            "outputs": [
                {
                    "internalType": "bool",
                    "name": "",
                    "type": "bool"
                }
            ],
            "stateMutability": "nonpayable",
            "type": "function"
        },
        {
            "inputs": [
                {
                    "internalType": "uint256",
                    "name": "_value",
                    "type": "uint256"
                }
            ],
            "name": "buyCoins",
            "outputs": [
                {
                    "internalType": "bool",
                    "name": "",
                    "type": "bool"
                }
            ],
            "stateMutability": "nonpayable",
            "type": "function"
        },
        {
            "inputs": [
                {
                    "internalType": "uint256",
                    "name": "_id",
                    "type": "uint256"
                }
            ],
            "name": "buyItem",
            "outputs": [
                {
                    "internalType": "bool",
                    "name": "",
                    "type": "bool"
                }
            ],
            "stateMutability": "nonpayable",
            "type": "function"
        },
        {
            "inputs": [
                {
                    "internalType": "uint256",
                    "name": "_id",
                    "type": "uint256"
                },
                {
                    "internalType": "string",
                    "name": "_nombre",
                    "type": "string"
                },
                {
                    "internalType": "string",
                    "name": "_tipo",
                    "type": "string"
                },
                {
                    "internalType": "uint256",
                    "name": "_value",
                    "type": "uint256"
                },
                {
                    "internalType": "bool",
                    "name": "_acumulable",
                    "type": "bool"
                },
                {
                    "internalType": "bool",
                    "name": "_ilimitado",
                    "type": "bool"
                },
                {
                    "internalType": "uint256",
                    "name": "_cantidad",
                    "type": "uint256"
                }
            ],
            "name": "editItem",
            "outputs": [
                {
                    "internalType": "bool",
                    "name": "",
                    "type": "bool"
                }
            ],
            "stateMutability": "nonpayable",
            "type": "function"
        },
        {
            "inputs": [
                {
                    "internalType": "uint256",
                    "name": "_id",
                    "type": "uint256"
                },
                {
                    "internalType": "string",
                    "name": "_tipo",
                    "type": "string"
                },
                {
                    "internalType": "bool",
                    "name": "_ilimitado",
                    "type": "bool"
                },
                {
                    "internalType": "uint256",
                    "name": "_cantidad",
                    "type": "uint256"
                }
            ],
            "name": "editOption",
            "outputs": [
                {
                    "internalType": "bool",
                    "name": "",
                    "type": "bool"
                }
            ],
            "stateMutability": "nonpayable",
            "type": "function"
        },
        {
            "inputs": [
                {
                    "internalType": "uint256",
                    "name": "_value",
                    "type": "uint256"
                }
            ],
            "name": "gastarCoins",
            "outputs": [
                {
                    "internalType": "bool",
                    "name": "",
                    "type": "bool"
                }
            ],
            "stateMutability": "nonpayable",
            "type": "function"
        },
        {
            "inputs": [
                {
                    "internalType": "uint256",
                    "name": "_value",
                    "type": "uint256"
                },
                {
                    "internalType": "address",
                    "name": "_user",
                    "type": "address"
                }
            ],
            "name": "gastarCoinsfrom",
            "outputs": [
                {
                    "internalType": "bool",
                    "name": "",
                    "type": "bool"
                }
            ],
            "stateMutability": "nonpayable",
            "type": "function"
        },
        {
            "inputs": [
                {
                    "internalType": "address",
                    "name": "",
                    "type": "address"
                },
                {
                    "internalType": "uint256",
                    "name": "",
                    "type": "uint256"
                }
            ],
            "name": "inventario",
            "outputs": [
                {
                    "internalType": "string",
                    "name": "nombre",
                    "type": "string"
                },
                {
                    "internalType": "string",
                    "name": "tipo",
                    "type": "string"
                },
                {
                    "internalType": "uint256",
                    "name": "valor",
                    "type": "uint256"
                },
                {
                    "internalType": "bool",
                    "name": "acumulable",
                    "type": "bool"
                },
                {
                    "internalType": "bool",
                    "name": "ilimitado",
                    "type": "bool"
                },
                {
                    "internalType": "uint256",
                    "name": "cantidad",
                    "type": "uint256"
                }
            ],
            "stateMutability": "view",
            "type": "function"
        },
        {
            "inputs": [
                {
                    "internalType": "address",
                    "name": "",
                    "type": "address"
                }
            ],
            "name": "investors",
            "outputs": [
                {
                    "internalType": "bool",
                    "name": "registered",
                    "type": "bool"
                },
                {
                    "internalType": "string",
                    "name": "correo",
                    "type": "string"
                },
                {
                    "internalType": "uint256",
                    "name": "balance",
                    "type": "uint256"
                },
                {
                    "internalType": "uint256",
                    "name": "gastado",
                    "type": "uint256"
                }
            ],
            "stateMutability": "view",
            "type": "function"
        },
        {
            "inputs": [
                {
                    "internalType": "uint256",
                    "name": "",
                    "type": "uint256"
                }
            ],
            "name": "items",
            "outputs": [
                {
                    "internalType": "string",
                    "name": "nombre",
                    "type": "string"
                },
                {
                    "internalType": "string",
                    "name": "tipo",
                    "type": "string"
                },
                {
                    "internalType": "uint256",
                    "name": "valor",
                    "type": "uint256"
                },
                {
                    "internalType": "bool",
                    "name": "acumulable",
                    "type": "bool"
                },
                {
                    "internalType": "bool",
                    "name": "ilimitado",
                    "type": "bool"
                },
                {
                    "internalType": "uint256",
                    "name": "cantidad",
                    "type": "uint256"
                }
            ],
            "stateMutability": "view",
            "type": "function"
        },
        {
            "inputs": [
                {
                    "internalType": "address",
                    "name": "_user",
                    "type": "address"
                }
            ],
            "name": "largoInventario",
            "outputs": [
                {
                    "internalType": "uint256",
                    "name": "",
                    "type": "uint256"
                }
            ],
            "stateMutability": "view",
            "type": "function"
        },
        {
            "inputs": [],
            "name": "largoItems",
            "outputs": [
                {
                    "internalType": "uint256",
                    "name": "",
                    "type": "uint256"
                }
            ],
            "stateMutability": "view",
            "type": "function"
        },
        {
            "inputs": [],
            "name": "largoOptions",
            "outputs": [
                {
                    "internalType": "uint256",
                    "name": "",
                    "type": "uint256"
                }
            ],
            "stateMutability": "view",
            "type": "function"
        },
        {
            "inputs": [
                {
                    "internalType": "address payable",
                    "name": "_newadmin",
                    "type": "address"
                }
            ],
            "name": "makeNewAdmin",
            "outputs": [],
            "stateMutability": "nonpayable",
            "type": "function"
        },
        {
            "inputs": [
                {
                    "internalType": "address payable",
                    "name": "_oldadmin",
                    "type": "address"
                }
            ],
            "name": "makeRemoveAdmin",
            "outputs": [],
            "stateMutability": "nonpayable",
            "type": "function"
        },
        {
            "inputs": [
                {
                    "internalType": "uint256",
                    "name": "",
                    "type": "uint256"
                }
            ],
            "name": "opciones",
            "outputs": [
                {
                    "internalType": "string",
                    "name": "tipo",
                    "type": "string"
                },
                {
                    "internalType": "bool",
                    "name": "ilimitados",
                    "type": "bool"
                },
                {
                    "internalType": "uint256",
                    "name": "cantidad",
                    "type": "uint256"
                }
            ],
            "stateMutability": "view",
            "type": "function"
        },
        {
            "inputs": [],
            "name": "owner",
            "outputs": [
                {
                    "internalType": "address payable",
                    "name": "",
                    "type": "address"
                }
            ],
            "stateMutability": "view",
            "type": "function"
        },
        {
            "inputs": [],
            "name": "redimETH",
            "outputs": [
                {
                    "internalType": "uint256",
                    "name": "",
                    "type": "uint256"
                }
            ],
            "stateMutability": "nonpayable",
            "type": "function"
        },
        {
            "inputs": [],
            "name": "redimOTRO",
            "outputs": [
                {
                    "internalType": "uint256",
                    "name": "",
                    "type": "uint256"
                }
            ],
            "stateMutability": "nonpayable",
            "type": "function"
        },
        {
            "inputs": [],
            "name": "redimTokenPrincipal01",
            "outputs": [
                {
                    "internalType": "uint256",
                    "name": "",
                    "type": "uint256"
                }
            ],
            "stateMutability": "nonpayable",
            "type": "function"
        },
        {
            "inputs": [
                {
                    "internalType": "uint256",
                    "name": "_value",
                    "type": "uint256"
                }
            ],
            "name": "redimTokenPrincipal02",
            "outputs": [
                {
                    "internalType": "uint256",
                    "name": "",
                    "type": "uint256"
                }
            ],
            "stateMutability": "nonpayable",
            "type": "function"
        },
        {
            "inputs": [
                {
                    "internalType": "string",
                    "name": "_correo",
                    "type": "string"
                }
            ],
            "name": "registro",
            "outputs": [],
            "stateMutability": "nonpayable",
            "type": "function"
        },
        {
            "inputs": [
                {
                    "internalType": "uint256",
                    "name": "_value",
                    "type": "uint256"
                }
            ],
            "name": "sellCoins",
            "outputs": [
                {
                    "internalType": "bool",
                    "name": "",
                    "type": "bool"
                }
            ],
            "stateMutability": "nonpayable",
            "type": "function"
        },
        {
            "inputs": [],
            "name": "token",
            "outputs": [
                {
                    "internalType": "address",
                    "name": "",
                    "type": "address"
                }
            ],
            "stateMutability": "view",
            "type": "function"
        },
        {
            "inputs": [
                {
                    "internalType": "address payable",
                    "name": "newOwner",
                    "type": "address"
                }
            ],
            "name": "transferOwnership",
            "outputs": [],
            "stateMutability": "nonpayable",
            "type": "function"
        },
        {
            "inputs": [
                {
                    "internalType": "string",
                    "name": "_correo",
                    "type": "string"
                }
            ],
            "name": "updateRegistro",
            "outputs": [],
            "stateMutability": "nonpayable",
            "type": "function"
        },
        {
            "inputs": [
                {
                    "internalType": "address",
                    "name": "_user",
                    "type": "address"
                },
                {
                    "internalType": "string",
                    "name": "_correo",
                    "type": "string"
                }
            ],
            "name": "updateRegistroMaster",
            "outputs": [],
            "stateMutability": "nonpayable",
            "type": "function"
        },
        {
            "inputs": [],
            "name": "ventaPublica",
            "outputs": [
                {
                    "internalType": "uint256",
                    "name": "",
                    "type": "uint256"
                }
            ],
            "stateMutability": "view",
            "type": "function"
        }
    ],
    "bytecode": "6080604052600280546001600160a01b031990811673f0fb4a5acf1b1126a991ee189408b112028d7a63908117909255600380548216724769ef6aec57efbf56c24d0a04fe619fbb6143179055636179bdd0600455600580548216831790556006805490911690911790553480156200007757600080fd5b50600080546001600160a01b0319163390811782558152600160208181526040808420805460ff191684179055805161010081018252601460c082019081527f74312d6272617a696c2d6c6567656e646172696f00000000000000000000000060e0830152815281518083018352600a8152696c6567656e646172696f60b01b81850152818401526843c33c1937564800009181019190915260608101849052608081018490526103e860a08201526009805493840181559093528251805160059093026000805160206200388783398151915201926200015c928492019062000ced565b50602082810151805162000177926001850192019062000ced565b50604082810151600283015560608084015160038401805460808088015161ffff1990921693151561ff0019169390931761010091151582021790915560a09586015160049095019490945582519384018352601760c085019081527f74322d617267656e74696e612d6c6567656e646172696f00000000000000000060e0860152845282518084018452600a8152696c6567656e646172696f60b01b602082810191909152808601919091526843c33c19375648000093850193909352600091840182905283018190526103e893830193909352600980546001810182559352815180519293600080516020620038878339815191526005909102019262000284928492019062000ced565b5060208281015180516200029f926001850192019062000ced565b50604082810151600283015560608084015160038401805460808088015161ffff1990921693151561ff0019169390931761010091151582021790915560a09586015160049095019490945582519384018352601660c085019081527f74332d616c656d616e69612d6c6567656e646172696f0000000000000000000060e0860152845282518084018452600a8152696c6567656e646172696f60b01b602082810191909152808601919091526843c33c19375648000093850193909352600091840182905283018190526103e8938301939093526009805460018101825593528151805192936000805160206200388783398151915260059091020192620003ac928492019062000ced565b506020828101518051620003c7926001850192019062000ced565b50604082810151600283015560608084015160038401805460808088015161ffff1990921693151561ff0019169390931761010091151582021790915560a09586015160049095019490945582519384018352600e60c085019081526d74342d6a61706f6e2d657069636f60901b60e0860152845282518084018452600580825264657069636f60d81b60208381019190915280870192909252682f6f10780d22cc00009486019490945260009285018390529084018290526101f49484019490945260098054600181018255915282518051939460008051602062003887833981519152929093029190910192620004c4928492019062000ced565b506020828101518051620004df926001850192019062000ced565b50604082810151600283015560608084015160038401805460808088015161ffff1990921693151561ff0019169390931761010091151582021790915560a09586015160049095019490945582519384018352601160c085019081527074352d636f6c6f6d6269612d657069636f60781b60e0860152845282518084018452600580825264657069636f60d81b60208381019190915280870192909252682f6f10780d22cc00009486019490945260009285018390529084018290526101f49484019490945260098054600181018255915282518051939460008051602062003887833981519152929093029190910192620005df928492019062000ced565b506020828101518051620005fa926001850192019062000ced565b50604082810151600283015560608084015160038401805460808088015161ffff1990921693151561ff0019169390931761010091151582021790915560a09586015160049095019490945582519384018352600f60c085019081526e74362d6d657869636f2d657069636f60881b60e0860152845282518084018452600580825264657069636f60d81b60208381019190915280870192909252682f6f10780d22cc00009486019490945260009285018390529084018290526105dc9484019490945260098054600181018255915282518051939460008051602062003887833981519152929093029190910192620006f8928492019062000ced565b50602082810151805162000713926001850192019062000ced565b50604082810151600283015560608084015160038401805460808088015161ffff1990921693151561ff0019169390931761010091151582021790915560a09586015160049095019490945582519384018352601060c085019081526f74372d63726f616369612d657069636f60801b60e0860152845282518084018452600580825264657069636f60d81b60208381019190915280870192909252682f6f10780d22cc00009486019490945260009285018390529084018290526102ee948401949094526009805460018101825591528251805193946000805160206200388783398151915292909302919091019262000812928492019062000ced565b5060208281015180516200082d926001850192019062000ced565b50604082810151600283015560608084015160038401805460808088015161ffff1990921693151561ff0019169390931761010091151582021790915560a09586015160049095019490945582519384018352600b60c085019081526a74382d45552d657069636f60a81b60e0860152845282518084018452600580825264657069636f60d81b60208381019190915280870192909252682f6f10780d22cc00009486019490945260009285018390529084018290526101f4948401949094526009805460018101825591528251805193946000805160206200388783398151915292909302919091019262000927928492019062000ced565b50602082810151805162000942926001850192019062000ced565b50604082810151600283015560608084015160038401805460808088015161ffff1990921693151561ff0019169390931761010091151582021790915560a09586015160049095019490945582519384018352601160c085019081527074392d706f72747567616c2d657069636f60781b60e0860152845282518084018452600580825264657069636f60d81b60208381019190915280870192909252682f6f10780d22cc00009486019490945260009285018390529084018290526102ee948401949094526009805460018101825591528251805193946000805160206200388783398151915292909302919091019262000a42928492019062000ced565b50602082810151805162000a5d926001850192019062000ced565b50604082810151600283015560608084015160038401805460808088015161ffff1990921693151561ff0019169390931761010091151582021790915560a09586015160049095019490945582519384018352600d60c085019081526c7431302d6573702d657069636f60981b60e0860152845282518084018452600580825264657069636f60d81b60208381019190915280870192909252682f6f10780d22cc00009486019490945260009285018390529084018290526101f4948401949094526009805460018101825591528251805193946000805160206200388783398151915292909302919091019262000b59928492019062000ced565b50602082810151805162000b74926001850192019062000ced565b5060408281015160028301556060808401516003808501805460808089015161ffff1990921694151561ff001916949094176101009115159190910217905560a09586015160049095019490945582519485018352600a918501828152696c6567656e646172696f60b01b91860191909152845260006020808601829052600193860184905282549384018355919052835180516000805160206200386783398151915293909402929092019262000c30928492019062000ced565b506020828101516001808401805492151560ff1990931692909217909155604093840151600290930192909255825160a08101845260056060820190815264657069636f60d81b608083015281526000818301819052938101839052600a8054938401815590935282518051600390930260008051602062003867833981519152019262000cc2928492019062000ced565b50602082015160018201805460ff191691151591909117905560409091015160029091015562000dd0565b82805462000cfb9062000d93565b90600052602060002090601f01602090048101928262000d1f576000855562000d6a565b82601f1062000d3a57805160ff191683800117855562000d6a565b8280016001018555821562000d6a579182015b8281111562000d6a57825182559160200191906001019062000d4d565b5062000d7892915062000d7c565b5090565b5b8082111562000d78576000815560010162000d7d565b600181811c9082168062000da857607f821691505b6020821081141562000dca57634e487b7160e01b600052602260045260246000fd5b50919050565b612a878062000de06000396000f3fe608060405234801561001057600080fd5b50600436106102055760003560e01c806370a0966b1161011a578063bfb231d2116100ad578063e7fb74c71161007c578063e7fb74c714610479578063eb5b455a1461048c578063f2fde38b14610494578063fc0c546a146104a7578063fe468196146104ba57600080fd5b8063bfb231d214610438578063c991c4741461044b578063cc3600581461045e578063dd62e6b31461047157600080fd5b806394c37f30116100e957806394c37f30146103da57806396ba5363146103ed578063a999d3e014610400578063ab97fd601461041357600080fd5b806370a0966b146103a35780638792fa47146103b65780638929cbc5146103bf5780638da5cb5b146103c757600080fd5b806336b19cd71161019d578063571c94d71161016c578063571c94d71461032257806363a846f81461033557806363f8de411461035857806369ed1e0a1461036d5780636f7bc9be1461038057600080fd5b806336b19cd7146102be57806336ec5fe4146102e957806351a4cd73146102fc57806351e954f71461030f57600080fd5b806317262d8a116101d957806317262d8a14610279578063238393e41461029b5780632e9928d3146102a357806330dc1a29146102ab57600080fd5b8062cffbcd1461020a578063035092d91461023257806309650b8e146102455780631140e85b14610258575b600080fd5b61021d610218366004612488565b6104cd565b60405190151581526020015b60405180910390f35b61021d6102403660046124f7565b61057e565b61021d610253366004612527565b610602565b61026b610266366004612588565b6106a4565b604051908152602001610229565b61028c610287366004612588565b6107d1565b604051610229939291906125f9565b60095461026b565b61026b610897565b61021d6102b9366004612588565b6108fd565b6003546102d1906001600160a01b031681565b6040516001600160a01b039091168152602001610229565b61021d6102f736600461261e565b61095b565b61021d61030a366004612588565b610a5c565b61021d61031d3660046126bb565b610bd9565b61021d6103303660046124f7565b610ccc565b61021d610343366004612763565b60016020526000908152604090205460ff1681565b61036b610366366004612780565b610d41565b005b61036b61037b366004612763565b610d84565b61039361038e366004612763565b610e09565b60405161022994939291906127bd565b61036b6103b1366004612763565b610ebe565b61026b60045481565b61026b610f3d565b6000546102d1906001600160a01b031681565b61036b6103e83660046127eb565b6110e8565b61021d6103fb366004612763565b611140565b61036b61040e366004612780565b61117d565b61042661042136600461283b565b6111af565b60405161022996959493929190612867565b610426610446366004612588565b611322565b61026b610459366004612763565b611355565b61021d61046c366004612763565b611524565b600a5461026b565b61021d610487366004612588565b61156f565b61026b611a3f565b61036b6104a2366004612763565b611b96565b6002546102d1906001600160a01b031681565b61021d6104c8366004612588565b611c1b565b600080546001600160a01b031633146104e557600080fd5b60408051606081018252858152841515602080830191909152918101849052600a805460018101825560009190915281518051929360039092027fc65a7bb8d6351c1cf70c95a316cc6a92839c986682d98bc35f958f4883f9d2a8019261054f928492019061233b565b5060208201516001828101805460ff191692151592909217909155604090920151600290910155949350505050565b3360009081526001602052604081205460ff1661059a57600080fd5b6001600160a01b0382166000908152600760205260409020805460ff161580156105d55750600281015460038201546105d39086611d84565b115b156105df57600080fd5b838160030160008282546105f391906128c8565b90915550600195945050505050565b600080546001600160a01b0316331461061a57600080fd5b6040518060600160405280858152602001841515815260200183815250600a868154811061064a5761064a6128e0565b9060005260206000209060030201600082015181600001908051906020019061067492919061233b565b5060208201516001828101805460ff19169215159290921790915560409092015160029091015595945050505050565b600080546001600160a01b031633146106bc57600080fd5b6005546040516370a0823160e01b815230600482015283916001600160a01b0316906370a082319060240160206040518083038186803b1580156106ff57600080fd5b505afa158015610713573d6000803e3d6000fd5b505050506040513d601f19601f8201168201806040525081019061073791906128f6565b101561074257600080fd5b60055460005460405163a9059cbb60e01b81526001600160a01b0391821660048201526024810185905291169063a9059cbb90604401602060405180830381600087803b15801561079257600080fd5b505af11580156107a6573d6000803e3d6000fd5b505050506040513d601f19601f820116820180604052508101906107ca919061290f565b5090919050565b600a81815481106107e157600080fd5b90600052602060002090600302016000915090508060000180546108049061292c565b80601f01602080910402602001604051908101604052809291908181526020018280546108309061292c565b801561087d5780601f106108525761010080835404028352916020019161087d565b820191906000526020600020905b81548152906001019060200180831161086057829003601f168201915b505050506001830154600290930154919260ff1691905083565b600080546001600160a01b031633146108af57600080fd5b600047116108bc57600080fd5b600080546040516001600160a01b03909116914780156108fc02929091818181858888f193505050501580156108f6573d6000803e3d6000fd5b5047905090565b336000908152600760205260408120805460ff1615801561092f57506002810154600382015461092d9085611d84565b115b1561093957600080fd5b8281600301600082825461094d91906128c8565b909155506001949350505050565b600080546001600160a01b0316331461097357600080fd5b6040805160c08101825288815260208082018990529181018790528515156060820152841515608082015260a081018490526009805460018101825560009190915281518051929360059092027f6e1540171b6c0c960b71a7020d9f60077f6af931a8bbf590da0223dacf75c7af01926109f0928492019061233b565b506020828101518051610a09926001850192019061233b565b50604082015160028201556060820151600382018054608085015115156101000261ff00199315159390931661ffff199091161791909117905560a0909101516004909101555060019695505050505050565b336000908152600760205260408120805460ff16610a7957600080fd5b8060020154838260030154610a8e91906128c8565b1115610a9957600080fd5b6005546040516370a0823160e01b815230600482015284916001600160a01b0316906370a082319060240160206040518083038186803b158015610adc57600080fd5b505afa158015610af0573d6000803e3d6000fd5b505050506040513d601f19601f82011682018060405250810190610b1491906128f6565b1015610b1f57600080fd5b60055460405163a9059cbb60e01b8152336004820152602481018590526001600160a01b039091169063a9059cbb90604401602060405180830381600087803b158015610b6b57600080fd5b505af1158015610b7f573d6000803e3d6000fd5b505050506040513d601f19601f82011682018060405250810190610ba3919061290f565b610bac57600080fd5b82816003016000828254610bc091906128c8565b9250508190555082600c600082825461094d91906128c8565b600080546001600160a01b03163314610bf157600080fd5b6040518060c00160405280888152602001878152602001868152602001851515815260200184151581526020018381525060098981548110610c3557610c356128e0565b90600052602060002090600502016000820151816000019080519060200190610c5f92919061233b565b506020828101518051610c78926001850192019061233b565b50604082015160028201556060820151600382018054608085015115156101000261ff00199315159390931661ffff199091161791909117905560a090910151600490910155506001979650505050505050565b3360009081526001602052604081205460ff16610ce857600080fd5b6001600160a01b0382166000908152600760205260409020805460ff16158015610d23575060028101546003820154610d219086611d84565b115b15610d2d57600080fd5b838160020160008282546105f391906128c8565b336000908152600760205260409020805460ff1615610d5f57600080fd5b805460ff1916600190811782558251610d7f91830190602085019061233b565b505050565b6000546001600160a01b03163314610d9b57600080fd5b6001600160a01b038116610dae57600080fd5b6040516001600160a01b038216907f71614071b88dee5e0b2ae578a9dd7b2ebbe9ae832ba419dc0242cd065a290b6c90600090a26001600160a01b03166000908152600160208190526040909120805460ff19169091179055565b6007602052600090815260409020805460018201805460ff9092169291610e2f9061292c565b80601f0160208091040260200160405190810160405280929190818152602001828054610e5b9061292c565b8015610ea85780601f10610e7d57610100808354040283529160200191610ea8565b820191906000526020600020905b815481529060010190602001808311610e8b57829003601f168201915b5050505050908060020154908060030154905084565b6000546001600160a01b03163314610ed557600080fd5b6001600160a01b038116610ee857600080fd5b6040516001600160a01b038216907fa3b62bc36326052d97ea62d63c3d60308ed4c3ea8ac079dd8499f1e9c4f80c0f90600090a26001600160a01b03166000908152600160205260409020805460ff19169055565b600080546001600160a01b03163314610f5557600080fd5b6006546040516370a0823160e01b81523060048201526000916001600160a01b0316906370a082319060240160206040518083038186803b158015610f9957600080fd5b505afa158015610fad573d6000803e3d6000fd5b505050506040513d601f19601f82011682018060405250810190610fd191906128f6565b11610fdb57600080fd5b6006546040516370a0823160e01b81523060048201526000916001600160a01b0316906370a082319060240160206040518083038186803b15801561101f57600080fd5b505afa158015611033573d6000803e3d6000fd5b505050506040513d601f19601f8201168201806040525081019061105791906128f6565b60065460005460405163a9059cbb60e01b81526001600160a01b03918216600482015260248101849052929350169063a9059cbb906044015b602060405180830381600087803b1580156110aa57600080fd5b505af11580156110be573d6000803e3d6000fd5b505050506040513d601f19601f820116820180604052508101906110e2919061290f565b50905090565b6000546001600160a01b031633146110ff57600080fd5b6001600160a01b0382166000908152600760205260409020805460ff1661112557600080fd5b815161113a906001830190602085019061233b565b50505050565b600080546001600160a01b0316331461115857600080fd5b50600680546001600160a01b0383166001600160a01b03199091161790556001919050565b336000908152600760205260409020805460ff1661119a57600080fd5b8151610d7f906001830190602085019061233b565b600860205281600052604060002081815481106111cb57600080fd5b9060005260206000209060050201600091509150508060000180546111ef9061292c565b80601f016020809104026020016040519081016040528092919081815260200182805461121b9061292c565b80156112685780601f1061123d57610100808354040283529160200191611268565b820191906000526020600020905b81548152906001019060200180831161124b57829003601f168201915b50505050509080600101805461127d9061292c565b80601f01602080910402602001604051908101604052809291908181526020018280546112a99061292c565b80156112f65780601f106112cb576101008083540402835291602001916112f6565b820191906000526020600020905b8154815290600101906020018083116112d957829003601f168201915b505050600284015460038501546004909501549394909360ff8083169450610100909204909116915086565b6009818154811061133257600080fd5b90600052602060002090600502016000915090508060000180546111ef9061292c565b6001600160a01b038116600090815260086020908152604080832080548251818502810185019093528083528493849084015b8282101561151757838290600052602060002090600502016040518060c00160405290816000820180546113bb9061292c565b80601f01602080910402602001604051908101604052809291908181526020018280546113e79061292c565b80156114345780601f1061140957610100808354040283529160200191611434565b820191906000526020600020905b81548152906001019060200180831161141757829003601f168201915b5050505050815260200160018201805461144d9061292c565b80601f01602080910402602001604051908101604052809291908181526020018280546114799061292c565b80156114c65780601f1061149b576101008083540402835291602001916114c6565b820191906000526020600020905b8154815290600101906020018083116114a957829003601f168201915b50505091835250506002820154602080830191909152600383015460ff8082161515604085015261010090910416151560608301526004909201546080909101529082526001929092019101611388565b5050915195945050505050565b600080546001600160a01b0316331461153c57600080fd5b50600680546001600160a01b0383166001600160a01b031991821681179092556002805490911690911790556001919050565b600060045442101561158057600080fd5b336000908152600760209081526040808320815160808101909252805460ff161515825260018101805492939192918401916115bb9061292c565b80601f01602080910402602001604051908101604052809291908181526020018280546115e79061292c565b80156116345780601f1061160957610100808354040283529160200191611634565b820191906000526020600020905b81548152906001019060200180831161161757829003601f168201915b50505050508152602001600282015481526020016003820154815250509050600060098481548110611668576116686128e0565b90600052602060002090600502016040518060c00160405290816000820180546116919061292c565b80601f01602080910402602001604051908101604052809291908181526020018280546116bd9061292c565b801561170a5780601f106116df5761010080835404028352916020019161170a565b820191906000526020600020905b8154815290600101906020018083116116ed57829003601f168201915b505050505081526020016001820180546117239061292c565b80601f016020809104026020016040519081016040528092919081815260200182805461174f9061292c565b801561179c5780601f106117715761010080835404028352916020019161179c565b820191906000526020600020905b81548152906001019060200180831161177f57829003601f168201915b505050918352505060028201546020820152600382015460ff808216151560408401526101009091041615156060808301919091526004909201546080909101528101519091506117fa576117f084611da7565b156117fa57600080fd5b815161180557600080fd5b806080015161181c5760a081015161181c57600080fd5b6040818101516005549151636eb1769f60e11b815233600482015230602482015290916001600160a01b03169063dd62ed3e9060440160206040518083038186803b15801561186a57600080fd5b505afa15801561187e573d6000803e3d6000fd5b505050506040513d601f19601f820116820180604052508101906118a291906128f6565b10156118ad57600080fd5b60055460035460408381015190516323b872dd60e01b81523360048201526001600160a01b03928316602482015260448101919091529116906323b872dd90606401602060405180830381600087803b15801561190957600080fd5b505af115801561191d573d6000803e3d6000fd5b505050506040513d601f19601f82011682018060405250810190611941919061290f565b61194a57600080fd5b806080015161198e57600160098581548110611968576119686128e0565b906000526020600020906005020160040160008282546119889190612967565b90915550505b3360009081526008602090815260408220805460018101825590835291819020835180518594600502909201926119ca9284929091019061233b565b5060208281015180516119e3926001850192019061233b565b5060408281015160028301556060830151600383018054608086015115156101000261ff00199315159390931661ffff199091161791909117905560a090920151600490910155810151600b80546000906105f39084906128c8565b600080546001600160a01b03163314611a5757600080fd5b6005546040516370a0823160e01b81523060048201526000916001600160a01b0316906370a082319060240160206040518083038186803b158015611a9b57600080fd5b505afa158015611aaf573d6000803e3d6000fd5b505050506040513d601f19601f82011682018060405250810190611ad391906128f6565b11611add57600080fd5b6005546040516370a0823160e01b81523060048201526000916001600160a01b0316906370a082319060240160206040518083038186803b158015611b2157600080fd5b505afa158015611b35573d6000803e3d6000fd5b505050506040513d601f19601f82011682018060405250810190611b5991906128f6565b60055460005460405163a9059cbb60e01b81526001600160a01b03918216600482015260248101849052929350169063a9059cbb90604401611090565b6000546001600160a01b03163314611bad57600080fd5b6001600160a01b038116611bc057600080fd5b600080546040516001600160a01b03808516939216917f8be0079c531659141344cd1fd0a4f28419497f9722a3daafe3b4186f6b6457e091a3600080546001600160a01b0319166001600160a01b0392909216919091179055565b336000908152600760205260408120805460ff16611c3857600080fd5b600554604051636eb1769f60e11b815233600482015230602482015284916001600160a01b03169063dd62ed3e9060440160206040518083038186803b158015611c8157600080fd5b505afa158015611c95573d6000803e3d6000fd5b505050506040513d601f19601f82011682018060405250810190611cb991906128f6565b1015611cc457600080fd5b6005546040516323b872dd60e01b8152336004820152306024820152604481018590526001600160a01b03909116906323b872dd90606401602060405180830381600087803b158015611d1657600080fd5b505af1158015611d2a573d6000803e3d6000fd5b505050506040513d601f19601f82011682018060405250810190611d4e919061290f565b611d5757600080fd5b82816002016000828254611d6b91906128c8565b9250508190555082600b600082825461094d91906128c8565b600080611d9183856128c8565b905083811015611da057600080fd5b9392505050565b60008060098381548110611dbd57611dbd6128e0565b90600052602060002090600502016040518060c0016040529081600082018054611de69061292c565b80601f0160208091040260200160405190810160405280929190818152602001828054611e129061292c565b8015611e5f5780601f10611e3457610100808354040283529160200191611e5f565b820191906000526020600020905b815481529060010190602001808311611e4257829003601f168201915b50505050508152602001600182018054611e789061292c565b80601f0160208091040260200160405190810160405280929190818152602001828054611ea49061292c565b8015611ef15780601f10611ec657610100808354040283529160200191611ef1565b820191906000526020600020905b815481529060010190602001808311611ed457829003601f168201915b50505091835250506002820154602080830191909152600383015460ff8082161515604080860191909152610100909204161515606084015260049093015460809092019190915233600090815260088252828120805484518185028101850190955280855294955090939091849084015b828210156120f257838290600052602060002090600502016040518060c0016040529081600082018054611f969061292c565b80601f0160208091040260200160405190810160405280929190818152602001828054611fc29061292c565b801561200f5780601f10611fe45761010080835404028352916020019161200f565b820191906000526020600020905b815481529060010190602001808311611ff257829003601f168201915b505050505081526020016001820180546120289061292c565b80601f01602080910402602001604051908101604052809291908181526020018280546120549061292c565b80156120a15780601f10612076576101008083540402835291602001916120a1565b820191906000526020600020905b81548152906001019060200180831161208457829003601f168201915b50505091835250506002820154602080830191909152600383015460ff8082161515604085015261010090910416151560608301526004909201546080909101529082526001929092019101611f63565b5050505090506000805b8251811015612332578351604051612117919060200161297e565b6040516020818303038152906040528051906020012083828151811061213f5761213f6128e0565b60200260200101516000015160405160200161215b919061297e565b6040516020818303038152906040528051906020012014156121805760019150612332565b602080850151604051612193920161297e565b604051602081830303815290604052805190602001208382815181106121bb576121bb6128e0565b6020026020010151602001516040516020016121d7919061297e565b604051602081830303815290604052805190602001201415612320576000805b600a5481101561231d57600a8181548110612214576122146128e0565b9060005260206000209060030201600001604051602001612235919061299a565b6040516020818303038152906040528051906020012085848151811061225d5761225d6128e0565b602002602001015160200151604051602001612279919061297e565b60405160208183030381529060405280519060200120141561230b578161229f81612a36565b925050600a81815481106122b5576122b56128e0565b90600052602060002090600302016002015482101580156122fd5750600a81815481106122e4576122e46128e0565b600091825260209091206001600390920201015460ff16155b1561230b576001935061231d565b8061231581612a36565b9150506121f7565b50505b8061232a81612a36565b9150506120fc565b50949350505050565b8280546123479061292c565b90600052602060002090601f01602090048101928261236957600085556123af565b82601f1061238257805160ff19168380011785556123af565b828001600101855582156123af579182015b828111156123af578251825591602001919060010190612394565b506123bb9291506123bf565b5090565b5b808211156123bb57600081556001016123c0565b634e487b7160e01b600052604160045260246000fd5b600082601f8301126123fb57600080fd5b813567ffffffffffffffff80821115612416576124166123d4565b604051601f8301601f19908116603f0116810190828211818310171561243e5761243e6123d4565b8160405283815286602085880101111561245757600080fd5b836020870160208301376000602085830101528094505050505092915050565b801515811461248557600080fd5b50565b60008060006060848603121561249d57600080fd5b833567ffffffffffffffff8111156124b457600080fd5b6124c0868287016123ea565b93505060208401356124d181612477565b929592945050506040919091013590565b6001600160a01b038116811461248557600080fd5b6000806040838503121561250a57600080fd5b82359150602083013561251c816124e2565b809150509250929050565b6000806000806080858703121561253d57600080fd5b84359350602085013567ffffffffffffffff81111561255b57600080fd5b612567878288016123ea565b935050604085013561257881612477565b9396929550929360600135925050565b60006020828403121561259a57600080fd5b5035919050565b60005b838110156125bc5781810151838201526020016125a4565b8381111561113a5750506000910152565b600081518084526125e58160208601602086016125a1565b601f01601f19169290920160200192915050565b60608152600061260c60608301866125cd565b93151560208301525060400152919050565b60008060008060008060c0878903121561263757600080fd5b863567ffffffffffffffff8082111561264f57600080fd5b61265b8a838b016123ea565b9750602089013591508082111561267157600080fd5b5061267e89828a016123ea565b95505060408701359350606087013561269681612477565b925060808701356126a681612477565b8092505060a087013590509295509295509295565b600080600080600080600060e0888a0312156126d657600080fd5b87359650602088013567ffffffffffffffff808211156126f557600080fd5b6127018b838c016123ea565b975060408a013591508082111561271757600080fd5b506127248a828b016123ea565b95505060608801359350608088013561273c81612477565b925060a088013561274c81612477565b8092505060c0880135905092959891949750929550565b60006020828403121561277557600080fd5b8135611da0816124e2565b60006020828403121561279257600080fd5b813567ffffffffffffffff8111156127a957600080fd5b6127b5848285016123ea565b949350505050565b84151581526080602082015260006127d860808301866125cd565b6040830194909452506060015292915050565b600080604083850312156127fe57600080fd5b8235612809816124e2565b9150602083013567ffffffffffffffff81111561282557600080fd5b612831858286016123ea565b9150509250929050565b6000806040838503121561284e57600080fd5b8235612859816124e2565b946020939093013593505050565b60c08152600061287a60c08301896125cd565b828103602084015261288c81896125cd565b604084019790975250509215156060840152901515608083015260a09091015292915050565b634e487b7160e01b600052601160045260246000fd5b600082198211156128db576128db6128b2565b500190565b634e487b7160e01b600052603260045260246000fd5b60006020828403121561290857600080fd5b5051919050565b60006020828403121561292157600080fd5b8151611da081612477565b600181811c9082168061294057607f821691505b6020821081141561296157634e487b7160e01b600052602260045260246000fd5b50919050565b600082821015612979576129796128b2565b500390565b600082516129908184602087016125a1565b9190910192915050565b600080835481600182811c9150808316806129b657607f831692505b60208084108214156129d657634e487b7160e01b86526022600452602486fd5b8180156129ea57600181146129fb57612a28565b60ff19861689528489019650612a28565b60008a81526020902060005b86811015612a205781548b820152908501908301612a07565b505084890196505b509498975050505050505050565b6000600019821415612a4a57612a4a6128b2565b506001019056fea264697066735822122011f4790aac973aee3e2c606578310d02732b6a1248e563e3c40404cb06b7ab5e64736f6c63430008090033c65a7bb8d6351c1cf70c95a316cc6a92839c986682d98bc35f958f4883f9d2a86e1540171b6c0c960b71a7020d9f60077f6af931a8bbf590da0223dacf75c7af",
    "sourcePath": "c:/Users/STC/Documents/GitHub/FootBall-ICO/contracts/Market/market.sol",
    "compiler": {
        "name": "solc",
        "version": "0.8.9+commit.e5eed63a"
    },
    "functionHashes": {
        "ChangePrincipalToken(address)": "cc360058",
        "ChangeTokenOTRO(address)": "96ba5363",
        "addItem(string,string,uint256,bool,bool,uint256)": "36ec5fe4",
        "addOption(string,bool,uint256)": "00cffbcd",
        "admin(address)": "63a846f8",
        "adminWallet()": "36b19cd7",
        "asignarCoinsTo(uint256,address)": "571c94d7",
        "buyCoins(uint256)": "fe468196",
        "buyItem(uint256)": "e7fb74c7",
        "editItem(uint256,string,string,uint256,bool,bool,uint256)": "51e954f7",
        "editOption(uint256,string,bool,uint256)": "09650b8e",
        "gastarCoins(uint256)": "30dc1a29",
        "gastarCoinsfrom(uint256,address)": "035092d9",
        "inventario(address,uint256)": "ab97fd60",
        "investors(address)": "6f7bc9be",
        "items(uint256)": "bfb231d2",
        "largoInventario(address)": "c991c474",
        "largoItems()": "238393e4",
        "largoOptions()": "dd62e6b3",
        "makeNewAdmin(address)": "69ed1e0a",
        "makeRemoveAdmin(address)": "70a0966b",
        "opciones(uint256)": "17262d8a",
        "owner()": "8da5cb5b",
        "redimETH()": "2e9928d3",
        "redimOTRO()": "8929cbc5",
        "redimTokenPrincipal01()": "eb5b455a",
        "redimTokenPrincipal02(uint256)": "1140e85b",
        "registro(string)": "63f8de41",
        "sellCoins(uint256)": "51a4cd73",
        "token()": "fc0c546a",
        "transferOwnership(address)": "f2fde38b",
        "updateRegistro(string)": "a999d3e0",
        "updateRegistroMaster(address,string)": "94c37f30",
        "ventaPublica()": "8792fa47"
    },
    "gasEstimates": {
        "creation": {
            "codeDepositCost": "2177400",
            "executionCost": "infinite",
            "totalCost": "infinite"
        },
        "external": {
            "ChangePrincipalToken(address)": "51086",
            "ChangeTokenOTRO(address)": "26831",
            "addItem(string,string,uint256,bool,bool,uint256)": "infinite",
            "addOption(string,bool,uint256)": "infinite",
            "admin(address)": "2581",
            "adminWallet()": "2383",
            "asignarCoinsTo(uint256,address)": "infinite",
            "buyCoins(uint256)": "infinite",
            "buyItem(uint256)": "infinite",
            "editItem(uint256,string,string,uint256,bool,bool,uint256)": "infinite",
            "editOption(uint256,string,bool,uint256)": "infinite",
            "gastarCoins(uint256)": "infinite",
            "gastarCoinsfrom(uint256,address)": "infinite",
            "inventario(address,uint256)": "infinite",
            "investors(address)": "infinite",
            "items(uint256)": "infinite",
            "largoInventario(address)": "infinite",
            "largoItems()": "2360",
            "largoOptions()": "2403",
            "makeNewAdmin(address)": "28069",
            "makeRemoveAdmin(address)": "27986",
            "opciones(uint256)": "infinite",
            "owner()": "2449",
            "redimETH()": "infinite",
            "redimOTRO()": "infinite",
            "redimTokenPrincipal01()": "infinite",
            "redimTokenPrincipal02(uint256)": "infinite",
            "registro(string)": "infinite",
            "sellCoins(uint256)": "infinite",
            "token()": "2447",
            "transferOwnership(address)": "30482",
            "updateRegistro(string)": "infinite",
            "updateRegistroMaster(address,string)": "infinite",
            "ventaPublica()": "2363"
        },
        "internal": {
            "viewDuplicatedItem(uint256)": "infinite"
        }
    }
}