{
    "contractName": "Game",
    "abi": [
        {
            "inputs": [],
            "stateMutability": "nonpayable",
            "type": "constructor"
        },
        {
            "anonymous": false,
            "inputs": [
                {
                    "indexed": true,
                    "internalType": "address",
                    "name": "admin",
                    "type": "address"
                }
            ],
            "name": "AdminRemoved",
            "type": "event"
        },
        {
            "anonymous": false,
            "inputs": [
                {
                    "indexed": true,
                    "internalType": "address",
                    "name": "admin",
                    "type": "address"
                }
            ],
            "name": "NewAdmin",
            "type": "event"
        },
        {
            "anonymous": false,
            "inputs": [
                {
                    "indexed": true,
                    "internalType": "address",
                    "name": "previousOwner",
                    "type": "address"
                },
                {
                    "indexed": true,
                    "internalType": "address",
                    "name": "newOwner",
                    "type": "address"
                }
            ],
            "name": "OwnershipTransferred",
            "type": "event"
        },
        {
            "inputs": [],
            "name": "MAX_BNB",
            "outputs": [
                {
                    "internalType": "uint256",
                    "name": "",
                    "type": "uint256"
                }
            ],
            "stateMutability": "view",
            "type": "function"
        },
        {
            "inputs": [],
            "name": "TIME_CLAIM",
            "outputs": [
                {
                    "internalType": "uint256",
                    "name": "",
                    "type": "uint256"
                }
            ],
            "stateMutability": "view",
            "type": "function"
        },
        {
            "inputs": [
                {
                    "internalType": "address payable",
                    "name": "_adminWallet",
                    "type": "address"
                }
            ],
            "name": "UpdateDEVSWallet",
            "outputs": [
                {
                    "internalType": "bool",
                    "name": "",
                    "type": "bool"
                }
            ],
            "stateMutability": "nonpayable",
            "type": "function"
        },
        {
            "inputs": [
                {
                    "internalType": "address payable",
                    "name": "_stakingWallet",
                    "type": "address"
                }
            ],
            "name": "UpdateSTAKINGWallet",
            "outputs": [
                {
                    "internalType": "bool",
                    "name": "",
                    "type": "bool"
                }
            ],
            "stateMutability": "nonpayable",
            "type": "function"
        },
        {
            "inputs": [
                {
                    "internalType": "address",
                    "name": "",
                    "type": "address"
                }
            ],
            "name": "admin",
            "outputs": [
                {
                    "internalType": "bool",
                    "name": "",
                    "type": "bool"
                }
            ],
            "stateMutability": "view",
            "type": "function"
        },
        {
            "inputs": [
                {
                    "internalType": "uint256",
                    "name": "_value",
                    "type": "uint256"
                },
                {
                    "internalType": "address",
                    "name": "_user",
                    "type": "address"
                }
            ],
            "name": "asignarCoinsTo",
            "outputs": [
                {
                    "internalType": "bool",
                    "name": "",
                    "type": "bool"
                }
            ],
            "stateMutability": "nonpayable",
            "type": "function"
        },
        {
            "inputs": [],
            "name": "buyCoins",
            "outputs": [
                {
                    "internalType": "bool",
                    "name": "",
                    "type": "bool"
                }
            ],
            "stateMutability": "payable",
            "type": "function"
        },
        {
            "inputs": [],
            "name": "devsWallet",
            "outputs": [
                {
                    "internalType": "address payable",
                    "name": "",
                    "type": "address"
                }
            ],
            "stateMutability": "view",
            "type": "function"
        },
        {
            "inputs": [
                {
                    "internalType": "uint256",
                    "name": "_value",
                    "type": "uint256"
                },
                {
                    "internalType": "address",
                    "name": "_user",
                    "type": "address"
                }
            ],
            "name": "gastarCoinsfrom",
            "outputs": [
                {
                    "internalType": "bool",
                    "name": "",
                    "type": "bool"
                }
            ],
            "stateMutability": "nonpayable",
            "type": "function"
        },
        {
            "inputs": [
                {
                    "internalType": "address",
                    "name": "",
                    "type": "address"
                }
            ],
            "name": "investors",
            "outputs": [
                {
                    "internalType": "bool",
                    "name": "baneado",
                    "type": "bool"
                },
                {
                    "internalType": "uint256",
                    "name": "balance",
                    "type": "uint256"
                },
                {
                    "internalType": "uint256",
                    "name": "payAt",
                    "type": "uint256"
                }
            ],
            "stateMutability": "view",
            "type": "function"
        },
        {
            "inputs": [
                {
                    "internalType": "address payable",
                    "name": "_newadmin",
                    "type": "address"
                }
            ],
            "name": "makeNewAdmin",
            "outputs": [],
            "stateMutability": "nonpayable",
            "type": "function"
        },
        {
            "inputs": [
                {
                    "internalType": "address payable",
                    "name": "_oldadmin",
                    "type": "address"
                }
            ],
            "name": "makeRemoveAdmin",
            "outputs": [],
            "stateMutability": "nonpayable",
            "type": "function"
        },
        {
            "inputs": [],
            "name": "owner",
            "outputs": [
                {
                    "internalType": "address payable",
                    "name": "",
                    "type": "address"
                }
            ],
            "stateMutability": "view",
            "type": "function"
        },
        {
            "inputs": [
                {
                    "internalType": "uint256",
                    "name": "_value",
                    "type": "uint256"
                }
            ],
            "name": "sellCoins",
            "outputs": [
                {
                    "internalType": "bool",
                    "name": "",
                    "type": "bool"
                }
            ],
            "stateMutability": "nonpayable",
            "type": "function"
        },
        {
            "inputs": [],
            "name": "stakingWallet",
            "outputs": [
                {
                    "internalType": "address payable",
                    "name": "",
                    "type": "address"
                }
            ],
            "stateMutability": "view",
            "type": "function"
        },
        {
            "inputs": [],
            "name": "transact",
            "outputs": [
                {
                    "internalType": "uint256",
                    "name": "",
                    "type": "uint256"
                }
            ],
            "stateMutability": "view",
            "type": "function"
        },
        {
            "inputs": [
                {
                    "internalType": "address payable",
                    "name": "newOwner",
                    "type": "address"
                }
            ],
            "name": "transferOwnership",
            "outputs": [],
            "stateMutability": "nonpayable",
            "type": "function"
        },
        {
            "inputs": [
                {
                    "internalType": "address",
                    "name": "_user",
                    "type": "address"
                },
                {
                    "internalType": "bool",
                    "name": "_ban",
                    "type": "bool"
                }
            ],
            "name": "userBan",
            "outputs": [
                {
                    "internalType": "bool",
                    "name": "isBaned",
                    "type": "bool"
                }
            ],
            "stateMutability": "nonpayable",
            "type": "function"
        },
        {
            "inputs": [],
            "name": "ventaPublica",
            "outputs": [
                {
                    "internalType": "uint256",
                    "name": "",
                    "type": "uint256"
                }
            ],
            "stateMutability": "view",
            "type": "function"
        }
    ],
    "bytecode": "608060405260028054731c261de3da6873c225079c73d7ba1b111eb9a5b36001600160a01b031991821681179092556003805490911690911790556362812380600455670de0b6b3a764000060055562015180600655600060075534801561006657600080fd5b50600080546001600160a01b03191633908117825581526001602081905260408220805460ff19169091179055610d119081906100a390396000f3fe6080604052600436106101145760003560e01c80638792fa47116100a0578063bbf30f2d11610064578063bbf30f2d14610337578063c29caa3314610357578063d60fd9b91461036d578063d83b8d8814610383578063f2fde38b146103a357600080fd5b80638792fa47146102b55780638da5cb5b146102d957806391074658146102f95780639a777d5d14610319578063af9890831461032157600080fd5b8063571c94d7116100e7578063571c94d7146101c657806363a846f8146101e657806369ed1e0a146102165780636f7bc9be1461023857806370a0966b1461029557600080fd5b8063035092d91461011957806306ee6ad81461014e578063303f37901461018657806351a4cd73146101a6575b600080fd5b34801561012557600080fd5b50610139610134366004610c18565b6103c3565b60405190151581526020015b60405180910390f35b34801561015a57600080fd5b5060035461016e906001600160a01b031681565b6040516001600160a01b039091168152602001610145565b34801561019257600080fd5b506101396101a1366004610bc1565b610482565b3480156101b257600080fd5b506101396101c1366004610bff565b6104c8565b3480156101d257600080fd5b506101396101e1366004610c18565b6106e6565b3480156101f257600080fd5b50610139610201366004610ba4565b60016020526000908152604090205460ff1681565b34801561022257600080fd5b50610236610231366004610ba4565b6107a6565b005b34801561024457600080fd5b50610278610253366004610ba4565b60086020526000908152604090208054600182015460029092015460ff909116919083565b604080519315158452602084019290925290820152606001610145565b3480156102a157600080fd5b506102366102b0366004610ba4565b610834565b3480156102c157600080fd5b506102cb60045481565b604051908152602001610145565b3480156102e557600080fd5b5060005461016e906001600160a01b031681565b34801561030557600080fd5b50610139610314366004610ba4565b6108bc565b610139610932565b34801561032d57600080fd5b506102cb60075481565b34801561034357600080fd5b5060025461016e906001600160a01b031681565b34801561036357600080fd5b506102cb60055481565b34801561037957600080fd5b506102cb60065481565b34801561038f57600080fd5b5061013961039e366004610ba4565b610a45565b3480156103af57600080fd5b506102366103be366004610ba4565b610abb565b3360009081526001602052604081205460ff166103df57600080fd5b6001600160a01b0382166000908152600860205260409020805460ff168061040a5750806001015484115b156104445760405162461bcd60e51b815260206004820152600560248201526432b93937b960d91b60448201526064015b60405180910390fd5b838160010160008282546104589190610c96565b9250508190555083600760008282546104719190610c3d565b909155506001925050505b92915050565b3360009081526001602052604081205460ff1661049e57600080fd5b506001600160a01b03919091166000908152600860205260409020805460ff191682151517905590565b336000908152600860205260408120805460ff16156105195760405162461bcd60e51b815260206004820152600d60248201526c65737461732062616e6561646f60981b604482015260640161043b565b80600101548311156105635760405162461bcd60e51b81526020600482015260136024820152726e6f207469656e6573206573652073616c646f60681b604482015260640161043b565b6005548311156105ac5760405162461bcd60e51b81526020600482015260146024820152736d6178696d6f203120626e6220706f722064696160601b604482015260640161043b565b4260065482600201546105bf9190610c3d565b111561060d5760405162461bcd60e51b815260206004820152601760248201527f6e6f206573207469656d706f2064652072657469726172000000000000000000604482015260640161043b565b8247101561065d5760405162461bcd60e51b815260206004820152601e60248201527f6e6f206861792062616c616e63652070617261207472616e7366657269720000604482015260640161043b565b604051339084156108fc029085906000818181858888f193505050506106be5760405162461bcd60e51b815260206004820152601660248201527566616c6c6f206c61207472616e73666572656e63696160501b604482015260640161043b565b828160010160008282546106d29190610c96565b909155505042600290910155506001919050565b3360009081526001602052604081205460ff1661070257600080fd5b6001600160a01b0382166000908152600860205260409020805460ff1680610732575068056bc75e2d6310000084115b1561077957805460ff1916600117815560405162461bcd60e51b815260206004820152600c60248201526b6e6f207065726d697469646f60a01b604482015260640161043b565b836007600082825461078b9190610c96565b92505081905550838160010160008282546104719190610c3d565b6000546001600160a01b0316336001600160a01b0316146107c657600080fd5b6001600160a01b0381166107d957600080fd5b6040516001600160a01b038216907f71614071b88dee5e0b2ae578a9dd7b2ebbe9ae832ba419dc0242cd065a290b6c90600090a26001600160a01b03166000908152600160208190526040909120805460ff19169091179055565b6000546001600160a01b0316336001600160a01b03161461085457600080fd5b6001600160a01b03811661086757600080fd5b6040516001600160a01b038216907fa3b62bc36326052d97ea62d63c3d60308ed4c3ea8ac079dd8499f1e9c4f80c0f90600090a26001600160a01b03166000908152600160205260409020805460ff19169055565b600080546001600160a01b0316336001600160a01b0316146108dd57600080fd5b50600280546001600160a01b039081166000908152600160208190526040808320805460ff1990811690915585546001600160a01b031916969094169586179094559381529190912080549091168217905590565b336000908152600860205260408120805460ff16156109835760405162461bcd60e51b815260206004820152600d60248201526c65737461732062616e6561646f60981b604482015260640161043b565b60003490508082600101600082825461099c9190610c3d565b90915550506003546001600160a01b03166108fc6109c660646109c0856008610b49565b90610b82565b6040518115909202916000818181858888f193505050501580156109ee573d6000803e3d6000fd5b50600280546001600160a01b0316906108fc90610a13906064906109c0908690610b49565b6040518115909202916000818181858888f19350505050158015610a3b573d6000803e3d6000fd5b5060019250505090565b600080546001600160a01b0316336001600160a01b031614610a6657600080fd5b50600380546001600160a01b039081166000908152600160208190526040808320805460ff1990811690915585546001600160a01b031916969094169586179094559381529190912080549091168217905590565b6000546001600160a01b0316336001600160a01b031614610adb57600080fd5b6001600160a01b038116610aee57600080fd5b600080546040516001600160a01b03808516939216917f8be0079c531659141344cd1fd0a4f28419497f9722a3daafe3b4186f6b6457e091a3600080546001600160a01b0319166001600160a01b0392909216919091179055565b600082610b585750600061047c565b6000610b648385610c77565b905082610b718583610c55565b14610b7b57600080fd5b9392505050565b6000808211610b9057600080fd5b6000610b9c8385610c55565b949350505050565b600060208284031215610bb657600080fd5b8135610b7b81610cc3565b60008060408385031215610bd457600080fd5b8235610bdf81610cc3565b915060208301358015158114610bf457600080fd5b809150509250929050565b600060208284031215610c1157600080fd5b5035919050565b60008060408385031215610c2b57600080fd5b823591506020830135610bf481610cc3565b60008219821115610c5057610c50610cad565b500190565b600082610c7257634e487b7160e01b600052601260045260246000fd5b500490565b6000816000190483118215151615610c9157610c91610cad565b500290565b600082821015610ca857610ca8610cad565b500390565b634e487b7160e01b600052601160045260246000fd5b6001600160a01b0381168114610cd857600080fd5b5056fea264697066735822122067f5cc4c816365681f6782653c99628c28d6bfee9d3dcc3a005cc6ac78a58baf64736f6c63430008070033",
    "sourcePath": "c:/Users/STC/Documents/GitHub/game.Solitaire-Crypto/contracts/Game/Game.sol",
    "compiler": {
        "name": "solc",
        "version": "0.8.7+commit.e28d00a7"
    },
    "functionHashes": {
        "MAX_BNB()": "c29caa33",
        "TIME_CLAIM()": "d60fd9b9",
        "UpdateDEVSWallet(address)": "91074658",
        "UpdateSTAKINGWallet(address)": "d83b8d88",
        "admin(address)": "63a846f8",
        "asignarCoinsTo(uint256,address)": "571c94d7",
        "buyCoins()": "9a777d5d",
        "devsWallet()": "bbf30f2d",
        "gastarCoinsfrom(uint256,address)": "035092d9",
        "investors(address)": "6f7bc9be",
        "makeNewAdmin(address)": "69ed1e0a",
        "makeRemoveAdmin(address)": "70a0966b",
        "owner()": "8da5cb5b",
        "sellCoins(uint256)": "51a4cd73",
        "stakingWallet()": "06ee6ad8",
        "transact()": "af989083",
        "transferOwnership(address)": "f2fde38b",
        "userBan(address,bool)": "303f3790",
        "ventaPublica()": "8792fa47"
    },
    "gasEstimates": {
        "creation": {
            "codeDepositCost": "669000",
            "executionCost": "169041",
            "totalCost": "838041"
        },
        "external": {
            "MAX_BNB()": "2339",
            "TIME_CLAIM()": "2361",
            "UpdateDEVSWallet(address)": "77545",
            "UpdateSTAKINGWallet(address)": "77566",
            "admin(address)": "2559",
            "asignarCoinsTo(uint256,address)": "53456",
            "buyCoins()": "infinite",
            "devsWallet()": "2359",
            "gastarCoinsfrom(uint256,address)": "55563",
            "investors(address)": "6892",
            "makeNewAdmin(address)": "28043",
            "makeRemoveAdmin(address)": "28069",
            "owner()": "2382",
            "sellCoins(uint256)": "infinite",
            "stakingWallet()": "2383",
            "transact()": "2406",
            "transferOwnership(address)": "30522",
            "userBan(address,bool)": "26995",
            "ventaPublica()": "2318"
        }
    }
}