{
    "contractName": "StakingPool",
    "abi": [
        {
            "inputs": [],
            "stateMutability": "nonpayable",
            "type": "constructor"
        },
        {
            "anonymous": false,
            "inputs": [
                {
                    "indexed": true,
                    "internalType": "address",
                    "name": "admin",
                    "type": "address"
                }
            ],
            "name": "AdminRemoved",
            "type": "event"
        },
        {
            "anonymous": false,
            "inputs": [
                {
                    "indexed": true,
                    "internalType": "address",
                    "name": "admin",
                    "type": "address"
                }
            ],
            "name": "NewAdmin",
            "type": "event"
        },
        {
            "anonymous": false,
            "inputs": [
                {
                    "indexed": true,
                    "internalType": "address",
                    "name": "previousOwner",
                    "type": "address"
                },
                {
                    "indexed": true,
                    "internalType": "address",
                    "name": "newOwner",
                    "type": "address"
                }
            ],
            "name": "OwnershipTransferred",
            "type": "event"
        },
        {
            "stateMutability": "payable",
            "type": "fallback"
        },
        {
            "inputs": [],
            "name": "CSC_PAY_BALANCE",
            "outputs": [
                {
                    "internalType": "uint256",
                    "name": "",
                    "type": "uint256"
                }
            ],
            "stateMutability": "view",
            "type": "function"
        },
        {
            "inputs": [],
            "name": "CSC_POOL_BALANCE",
            "outputs": [
                {
                    "internalType": "uint256",
                    "name": "",
                    "type": "uint256"
                }
            ],
            "stateMutability": "view",
            "type": "function"
        },
        {
            "inputs": [],
            "name": "CSC_WALLET_BALANCE",
            "outputs": [
                {
                    "internalType": "uint256",
                    "name": "",
                    "type": "uint256"
                }
            ],
            "stateMutability": "view",
            "type": "function"
        },
        {
            "inputs": [
                {
                    "internalType": "address",
                    "name": "_tokenTRC20",
                    "type": "address"
                }
            ],
            "name": "ChangeToken",
            "outputs": [
                {
                    "internalType": "bool",
                    "name": "",
                    "type": "bool"
                }
            ],
            "stateMutability": "nonpayable",
            "type": "function"
        },
        {
            "inputs": [
                {
                    "internalType": "address",
                    "name": "_tokenTRC20",
                    "type": "address"
                }
            ],
            "name": "ChangeTokenOTRO",
            "outputs": [
                {
                    "internalType": "bool",
                    "name": "",
                    "type": "bool"
                }
            ],
            "stateMutability": "nonpayable",
            "type": "function"
        },
        {
            "inputs": [],
            "name": "MIN_DEPOSIT",
            "outputs": [
                {
                    "internalType": "uint256",
                    "name": "",
                    "type": "uint256"
                }
            ],
            "stateMutability": "view",
            "type": "function"
        },
        {
            "inputs": [],
            "name": "RATE",
            "outputs": [
                {
                    "internalType": "uint256",
                    "name": "",
                    "type": "uint256"
                }
            ],
            "stateMutability": "view",
            "type": "function"
        },
        {
            "inputs": [],
            "name": "TOTAL_PARTICIPACIONES",
            "outputs": [
                {
                    "internalType": "uint256",
                    "name": "",
                    "type": "uint256"
                }
            ],
            "stateMutability": "view",
            "type": "function"
        },
        {
            "inputs": [],
            "name": "TOTAL_POOL",
            "outputs": [
                {
                    "internalType": "uint256",
                    "name": "",
                    "type": "uint256"
                }
            ],
            "stateMutability": "view",
            "type": "function"
        },
        {
            "inputs": [
                {
                    "internalType": "uint256",
                    "name": "_inicio",
                    "type": "uint256"
                },
                {
                    "internalType": "uint256",
                    "name": "_fin",
                    "type": "uint256"
                }
            ],
            "name": "actualizarFechas",
            "outputs": [
                {
                    "internalType": "bool",
                    "name": "",
                    "type": "bool"
                }
            ],
            "stateMutability": "nonpayable",
            "type": "function"
        },
        {
            "inputs": [
                {
                    "internalType": "address",
                    "name": "",
                    "type": "address"
                }
            ],
            "name": "admin",
            "outputs": [
                {
                    "internalType": "bool",
                    "name": "",
                    "type": "bool"
                }
            ],
            "stateMutability": "view",
            "type": "function"
        },
        {
            "inputs": [
                {
                    "internalType": "uint256",
                    "name": "_value",
                    "type": "uint256"
                }
            ],
            "name": "asignarPerdida",
            "outputs": [
                {
                    "internalType": "uint256",
                    "name": "",
                    "type": "uint256"
                }
            ],
            "stateMutability": "nonpayable",
            "type": "function"
        },
        {
            "inputs": [
                {
                    "internalType": "uint256",
                    "name": "_value",
                    "type": "uint256"
                }
            ],
            "name": "compra",
            "outputs": [
                {
                    "internalType": "uint256",
                    "name": "",
                    "type": "uint256"
                }
            ],
            "stateMutability": "view",
            "type": "function"
        },
        {
            "inputs": [],
            "name": "fin",
            "outputs": [
                {
                    "internalType": "uint256",
                    "name": "",
                    "type": "uint256"
                }
            ],
            "stateMutability": "view",
            "type": "function"
        },
        {
            "inputs": [
                {
                    "internalType": "uint256",
                    "name": "_value",
                    "type": "uint256"
                }
            ],
            "name": "gananciaDirecta",
            "outputs": [
                {
                    "internalType": "uint256",
                    "name": "",
                    "type": "uint256"
                }
            ],
            "stateMutability": "nonpayable",
            "type": "function"
        },
        {
            "inputs": [],
            "name": "inicio",
            "outputs": [
                {
                    "internalType": "uint256",
                    "name": "",
                    "type": "uint256"
                }
            ],
            "stateMutability": "view",
            "type": "function"
        },
        {
            "inputs": [
                {
                    "internalType": "address payable",
                    "name": "_newadmin",
                    "type": "address"
                }
            ],
            "name": "makeNewAdmin",
            "outputs": [],
            "stateMutability": "nonpayable",
            "type": "function"
        },
        {
            "inputs": [
                {
                    "internalType": "address payable",
                    "name": "_oldadmin",
                    "type": "address"
                }
            ],
            "name": "makeRemoveAdmin",
            "outputs": [],
            "stateMutability": "nonpayable",
            "type": "function"
        },
        {
            "inputs": [],
            "name": "owner",
            "outputs": [
                {
                    "internalType": "address payable",
                    "name": "",
                    "type": "address"
                }
            ],
            "stateMutability": "view",
            "type": "function"
        },
        {
            "inputs": [
                {
                    "internalType": "uint256",
                    "name": "_value",
                    "type": "uint256"
                }
            ],
            "name": "pago",
            "outputs": [
                {
                    "internalType": "uint256",
                    "name": "",
                    "type": "uint256"
                }
            ],
            "stateMutability": "view",
            "type": "function"
        },
        {
            "inputs": [],
            "name": "precision",
            "outputs": [
                {
                    "internalType": "uint256",
                    "name": "",
                    "type": "uint256"
                }
            ],
            "stateMutability": "view",
            "type": "function"
        },
        {
            "inputs": [],
            "name": "redimBNB",
            "outputs": [
                {
                    "internalType": "uint256",
                    "name": "",
                    "type": "uint256"
                }
            ],
            "stateMutability": "nonpayable",
            "type": "function"
        },
        {
            "inputs": [
                {
                    "internalType": "uint256",
                    "name": "_value",
                    "type": "uint256"
                }
            ],
            "name": "redimCSC",
            "outputs": [
                {
                    "internalType": "uint256",
                    "name": "",
                    "type": "uint256"
                }
            ],
            "stateMutability": "nonpayable",
            "type": "function"
        },
        {
            "inputs": [],
            "name": "redimOTRO",
            "outputs": [
                {
                    "internalType": "uint256",
                    "name": "",
                    "type": "uint256"
                }
            ],
            "stateMutability": "nonpayable",
            "type": "function"
        },
        {
            "inputs": [
                {
                    "internalType": "uint256",
                    "name": "_participacion",
                    "type": "uint256"
                }
            ],
            "name": "retiro",
            "outputs": [
                {
                    "internalType": "uint256",
                    "name": "",
                    "type": "uint256"
                }
            ],
            "stateMutability": "nonpayable",
            "type": "function"
        },
        {
            "inputs": [
                {
                    "internalType": "uint256",
                    "name": "_value",
                    "type": "uint256"
                }
            ],
            "name": "staking",
            "outputs": [
                {
                    "internalType": "uint256",
                    "name": "",
                    "type": "uint256"
                }
            ],
            "stateMutability": "nonpayable",
            "type": "function"
        },
        {
            "inputs": [
                {
                    "internalType": "address payable",
                    "name": "newOwner",
                    "type": "address"
                }
            ],
            "name": "transferOwnership",
            "outputs": [],
            "stateMutability": "nonpayable",
            "type": "function"
        },
        {
            "inputs": [
                {
                    "internalType": "address",
                    "name": "",
                    "type": "address"
                }
            ],
            "name": "usuarios",
            "outputs": [
                {
                    "internalType": "uint256",
                    "name": "participacion",
                    "type": "uint256"
                }
            ],
            "stateMutability": "view",
            "type": "function"
        },
        {
            "stateMutability": "payable",
            "type": "receive"
        }
    ],
    "bytecode": "60806040526002805473389ccc30de1d311738dffd3f60d4fd6188970f456001600160a01b03199182168117909255600380549091169091179055680ad78ebc5ac62000006004556a01b98413944c8e2d20000060055563618c32d0600881905561006d9062278d006100b4565b6009556012600a5534801561008157600080fd5b50600080546001600160a01b0319163390811782558152600160208190526040909120805460ff191690911790556100da565b600082198211156100d557634e487b7160e01b600052601160045260246000fd5b500190565b61116c806100e96000396000f3fe6080604052600436106101a25760003560e01c80638929cbc5116100e0578063d3b5dc3b11610084578063f2fde38b11610061578063f2fde38b14610482578063f6b91ea9146104a2578063fd14d598146104cf578063fd89ca16146104e457005b8063d3b5dc3b14610440578063e1e158a514610456578063ea30f0cf1461046c57005b8063a923c109116100bd578063a923c109146103ca578063ae77652f146103ea578063bc896d531461040a578063be1e19b91461042a57005b80638929cbc51461035d5780638da5cb5b1461037257806396ba5363146103aa57005b806360f05ea71161014757806369ed1e0a1161012457806369ed1e0a146102ea57806370a0966b1461030a5780637be0df971461032a5780637cb029501461033d57005b806360f05ea71461027557806363a846f814610295578063664e9704146102d557005b8063315a25a111610180578063315a25a11461020957806333916e771461021f5780633624850e1461023f578063383f23a01461025557005b8062a36947146101ab5780631dbb2a22146101d45780632735abec146101f457005b366101a957005b005b3480156101b757600080fd5b506101c160095481565b6040519081526020015b60405180910390f35b3480156101e057600080fd5b506101c16101ef366004610f15565b610504565b34801561020057600080fd5b506101c161069b565b34801561021557600080fd5b506101c160075481565b34801561022b57600080fd5b506101c161023a366004610f15565b6106fb565b34801561024b57600080fd5b506101c160085481565b34801561026157600080fd5b506101c1610270366004610f15565b610730565b34801561028157600080fd5b506101c1610290366004610f15565b61076e565b3480156102a157600080fd5b506102c56102b0366004610f46565b60016020526000908152604090205460ff1681565b60405190151581526020016101cb565b3480156102e157600080fd5b506101c16107a1565b3480156102f657600080fd5b506101a9610305366004610f46565b6107f6565b34801561031657600080fd5b506101a9610325366004610f46565b610884565b34801561033657600080fd5b50476101c1565b34801561034957600080fd5b506101c1610358366004610f15565b61090c565b34801561036957600080fd5b506101c1610932565b34801561037e57600080fd5b50600054610392906001600160a01b031681565b6040516001600160a01b0390911681526020016101cb565b3480156103b657600080fd5b506102c56103c5366004610f46565b610a41565b3480156103d657600080fd5b506102c56103e5366004610f46565b610a87565b3480156103f657600080fd5b506101c1610405366004610f15565b610acd565b34801561041657600080fd5b506101c1610425366004610f15565b610be5565b34801561043657600080fd5b506101c160065481565b34801561044c57600080fd5b506101c1600a5481565b34801561046257600080fd5b506101c160045481565b34801561047857600080fd5b506101c160055481565b34801561048e57600080fd5b506101a961049d366004610f46565b610d51565b3480156104ae57600080fd5b506101c16104bd366004610f46565b600b6020526000908152604090205481565b3480156104db57600080fd5b506101c1610ddf565b3480156104f057600080fd5b506102c56104ff366004610f63565b610e4b565b6000600854421080610517575060095442115b1561052157600080fd5b60045482101561053057600080fd5b6002546040516370a0823160e01b815233600482015283916001600160a01b0316906370a0823190602401602060405180830381865afa158015610578573d6000803e3d6000fd5b505050506040513d601f19601f8201168201806040525081019061059c9190610f85565b10156105a757600080fd5b6002546040516323b872dd60e01b8152336004820152306024820152604481018490526001600160a01b03909116906323b872dd906064016020604051808303816000875af11580156105fe573d6000803e3d6000fd5b505050506040513d601f19601f820116820180604052508101906106229190610f9e565b61062b57600080fd5b336000908152600b602052604090206106438361090c565b8160000160008282546106569190610fd6565b9091555061066590508361090c565b600760008282546106769190610fd6565b92505081905550826006600082825461068f9190610fd6565b90915550929392505050565b60008060085442106106f657600060095442116106b857426106bc565b6009545b90506008546009546106ce9190610fee565b6008546106db9083610fee565b6005546106e89190611005565b6106f29190611024565b9150505b919050565b600061070f6107086107a1565b8390610e9e565b915061072a600a54600a610723919061112a565b8390610ed7565b92915050565b600080546001600160a01b0316336001600160a01b03161461075157600080fd5b81600660008282546107639190610fee565b909155509192915050565b600080546001600160a01b0316336001600160a01b03161461078f57600080fd5b81600660008282546107639190610fd6565b6000600754600014156107c7576107c26107b961069b565b60065490610ef9565b905090565b6107c26007546107f0600a54600a6107df919061112a565b6107ea6107b961069b565b90610e9e565b90610ed7565b6000546001600160a01b0316336001600160a01b03161461081657600080fd5b6001600160a01b03811661082957600080fd5b6040516001600160a01b038216907f71614071b88dee5e0b2ae578a9dd7b2ebbe9ae832ba419dc0242cd065a290b6c90600090a26001600160a01b03166000908152600160208190526040909120805460ff19169091179055565b6000546001600160a01b0316336001600160a01b0316146108a457600080fd5b6001600160a01b0381166108b757600080fd5b6040516001600160a01b038216907fa3b62bc36326052d97ea62d63c3d60308ed4c3ea8ac079dd8499f1e9c4f80c0f90600090a26001600160a01b03166000908152600160205260409020805460ff19169055565b600061072a6109196107a1565b6107f0600a54600a61092b919061112a565b8590610e9e565b600080546001600160a01b0316336001600160a01b03161461095357600080fd5b6003546040516370a0823160e01b81523060048201526000916001600160a01b0316906370a0823190602401602060405180830381865afa15801561099c573d6000803e3d6000fd5b505050506040513d601f19601f820116820180604052508101906109c09190610f85565b60035460005460405163a9059cbb60e01b81526001600160a01b03918216600482015260248101849052929350169063a9059cbb906044016020604051808303816000875af1158015610a17573d6000803e3d6000fd5b505050506040513d601f19601f82011682018060405250810190610a3b9190610f9e565b50905090565b600080546001600160a01b0316336001600160a01b031614610a6257600080fd5b50600380546001600160a01b0383166001600160a01b03199091161790556001919050565b600080546001600160a01b0316336001600160a01b031614610aa857600080fd5b50600280546001600160a01b0383166001600160a01b03199091161790556001919050565b600080546001600160a01b0316336001600160a01b031614610aee57600080fd5b6002546040516370a0823160e01b815230600482015283916001600160a01b0316906370a0823190602401602060405180830381865afa158015610b36573d6000803e3d6000fd5b505050506040513d601f19601f82011682018060405250810190610b5a9190610f85565b1015610b6557600080fd5b60025460005460405163a9059cbb60e01b81526001600160a01b0391821660048201526024810185905291169063a9059cbb906044016020604051808303816000875af1158015610bba573d6000803e3d6000fd5b505050506040513d601f19601f82011682018060405250810190610bde9190610f9e565b5090919050565b6000600954421015610bf657600080fd5b336000908152600b602052604090208054831115610c1357600080fd5b6000610c1e846106fb565b905080610c2c6107b961069b565b1015610c3757600080fd5b60025460405163a9059cbb60e01b8152336004820152602481018390526001600160a01b039091169063a9059cbb906044016020604051808303816000875af1158015610c88573d6000803e3d6000fd5b505050506040513d601f19601f82011682018060405250810190610cac9190610f9e565b610cb557600080fd5b6000610cbf61069b565b905084836000016000828254610cd59190610fee565b925050819055508460076000828254610cee9190610fee565b925050819055508060056000828254610d079190610fee565b925050819055508060066000828254610d209190610fd6565b925050819055508160066000828254610d399190610fee565b90915550610d489050856106fb565b95945050505050565b6000546001600160a01b0316336001600160a01b031614610d7157600080fd5b6001600160a01b038116610d8457600080fd5b600080546040516001600160a01b03808516939216917f8be0079c531659141344cd1fd0a4f28419497f9722a3daafe3b4186f6b6457e091a3600080546001600160a01b0319166001600160a01b0392909216919091179055565b600080546001600160a01b0316336001600160a01b031614610e0057600080fd5b47610e0a57600080fd5b600080546040516001600160a01b03909116914780156108fc02929091818181858888f19350505050158015610e44573d6000803e3d6000fd5b5047905090565b600080546001600160a01b0316336001600160a01b031614610e6c57600080fd5b60088390558115610e81576009829055610e95565b600854610e919062278d00610fd6565b6009555b50600192915050565b600082610ead5750600061072a565b6000610eb98385611005565b905082610ec68583611024565b14610ed057600080fd5b9392505050565b6000808211610ee557600080fd5b6000610ef18385611024565b949350505050565b600080610f068385610fd6565b905083811015610ed057600080fd5b600060208284031215610f2757600080fd5b5035919050565b6001600160a01b0381168114610f4357600080fd5b50565b600060208284031215610f5857600080fd5b8135610ed081610f2e565b60008060408385031215610f7657600080fd5b50508035926020909101359150565b600060208284031215610f9757600080fd5b5051919050565b600060208284031215610fb057600080fd5b81518015158114610ed057600080fd5b634e487b7160e01b600052601160045260246000fd5b60008219821115610fe957610fe9610fc0565b500190565b60008282101561100057611000610fc0565b500390565b600081600019048311821515161561101f5761101f610fc0565b500290565b60008261104157634e487b7160e01b600052601260045260246000fd5b500490565b600181815b8085111561108157816000190482111561106757611067610fc0565b8085161561107457918102915b93841c939080029061104b565b509250929050565b6000826110985750600161072a565b816110a55750600061072a565b81600181146110bb57600281146110c5576110e1565b600191505061072a565b60ff8411156110d6576110d6610fc0565b50506001821b61072a565b5060208310610133831016604e8410600b8410161715611104575081810a61072a565b61110e8383611046565b806000190482111561112257611122610fc0565b029392505050565b6000610ed0838361108956fea2646970667358221220e34964511d71061077c05edf590982f14c85e0956d91c4388c22544e75c2471564736f6c634300080a0033",
    "sourcePath": "c:/Users/STC/Documents/GitHub/Crypto-Soccer-Testnet/contracts/Staking/staking.sol",
    "compiler": {
        "name": "solc",
        "version": "0.8.10+commit.fc410830"
    },
    "functionHashes": {
        "CSC_PAY_BALANCE()": "7be0df97",
        "CSC_POOL_BALANCE()": "2735abec",
        "CSC_WALLET_BALANCE()": "be1e19b9",
        "ChangeToken(address)": "a923c109",
        "ChangeTokenOTRO(address)": "96ba5363",
        "MIN_DEPOSIT()": "e1e158a5",
        "RATE()": "664e9704",
        "TOTAL_PARTICIPACIONES()": "315a25a1",
        "TOTAL_POOL()": "ea30f0cf",
        "actualizarFechas(uint256,uint256)": "fd89ca16",
        "admin(address)": "63a846f8",
        "asignarPerdida(uint256)": "383f23a0",
        "compra(uint256)": "7cb02950",
        "fin()": "00a36947",
        "gananciaDirecta(uint256)": "60f05ea7",
        "inicio()": "3624850e",
        "makeNewAdmin(address)": "69ed1e0a",
        "makeRemoveAdmin(address)": "70a0966b",
        "owner()": "8da5cb5b",
        "pago(uint256)": "33916e77",
        "precision()": "d3b5dc3b",
        "redimBNB()": "fd14d598",
        "redimCSC(uint256)": "ae77652f",
        "redimOTRO()": "8929cbc5",
        "retiro(uint256)": "bc896d53",
        "staking(uint256)": "1dbb2a22",
        "transferOwnership(address)": "f2fde38b",
        "usuarios(address)": "f6b91ea9"
    },
    "gasEstimates": {
        "creation": {
            "codeDepositCost": "892000",
            "executionCost": "208556",
            "totalCost": "1100556"
        },
        "external": {
            "": "186",
            "CSC_PAY_BALANCE()": "272",
            "CSC_POOL_BALANCE()": "infinite",
            "CSC_WALLET_BALANCE()": "2395",
            "ChangeToken(address)": "26838",
            "ChangeTokenOTRO(address)": "26883",
            "MIN_DEPOSIT()": "2351",
            "RATE()": "infinite",
            "TOTAL_PARTICIPACIONES()": "2330",
            "TOTAL_POOL()": "2373",
            "actualizarFechas(uint256,uint256)": "48999",
            "admin(address)": "2593",
            "asignarPerdida(uint256)": "26843",
            "compra(uint256)": "infinite",
            "fin()": "2331",
            "gananciaDirecta(uint256)": "26780",
            "inicio()": "2374",
            "makeNewAdmin(address)": "28021",
            "makeRemoveAdmin(address)": "28025",
            "owner()": "2405",
            "pago(uint256)": "infinite",
            "precision()": "2329",
            "redimBNB()": "infinite",
            "redimCSC(uint256)": "infinite",
            "redimOTRO()": "infinite",
            "retiro(uint256)": "infinite",
            "staking(uint256)": "infinite",
            "transferOwnership(address)": "30456",
            "usuarios(address)": "2568"
        }
    }
}